:020000040000fa
:080000000002040000000000f2
:020000040000fa
:04000800ce06000020
:020000040000fa
:04000c0044060000a6
:020000040000fa
:040010006406000082
:020000040000fa
:040014000e070000d3
:020000040000fa
:04001800ee060000f0
:020000040000fa
:04001c0016080000c2
:020000040000fa
:040020008406000052
:020000040000fa
:0400240016080000ba
:020000040000fa
:0400280016080000b6
:020000040000fa
:04002c0016080000b2
:020000040000fa
:0400300016080000ae
:020000040000fa
:0400340016080000aa
:020000040000fa
:0400380016080000a6
:020000040000fa
:04003c0016080000a2
:020000040000fa
:04004000160800009e
:020000040000fa
:04004400160800009a
:020000040000fa
:040048001608000096
:020000040000fa
:04004c001608000092
:020000040000fa
:04005000160800008e
:020000040000fa
:04005400160800008a
:020000040000fa
:040058001608000086
:020000040000fa
:04005c001608000082
:020000040000fa
:04006000160800007e
:020000040000fa
:04006400160800007a
:020000040000fa
:040068001608000076
:020000040000fa
:04006c001608000072
:020000040000fa
:04007000160800006e
:020000040000fa
:04007400160800006a
:020000040000fa
:040078001608000066
:020000040000fa
:04007c001608000062
:020000040000fa
:04008000160800005e
:020000040000fa
:04008400160800005a
:020000040000fa
:040088001608000056
:020000040000fa
:04008c001608000052
:020000040000fa
:04009000160800004e
:020000040000fa
:04009400160800004a
:020000040000fa
:040098001608000046
:020000040000fa
:04009c001608000042
:020000040000fa
:0400a000160800003e
:020000040000fa
:0400a400160800003a
:020000040000fa
:0400a8001608000036
:020000040000fa
:0400ac001608000032
:020000040000fa
:0400b000160800002e
:020000040000fa
:0400b400160800002a
:020000040000fa
:0400b8001608000026
:020000040000fa
:0400bc001608000022
:020000040000fa
:0400c000160800001e
:020000040000fa
:0400c400160800001a
:020000040000fa
:0400c8001608000016
:020000040000fa
:0400cc001608000012
:020000040000fa
:0400d000160800000e
:020000040000fa
:0400d400160800000a
:020000040000fa
:0400d8001608000006
:020000040000fa
:0400dc0030070000e9
:020000040000fa
:0400e00016080000fe
:020000040000fa
:0400e40016080000fa
:020000040000fa
:0400e80016080000f6
:020000040000fa
:0400ec0016080000f2
:020000040000fa
:0400f00016080000ee
:020000040000fa
:0400f40016080000ea
:020000040000fa
:0400f80016080000e6
:020000040000fa
:0400fc0016080000e2
:020000040000fa
:0401000016080000dd
:020000040000fa
:0401040016080000d9
:020000040000fa
:0401080016080000d5
:020000040000fa
:04010c0016080000d1
:020000040000fa
:0401100016080000cd
:020000040000fa
:0401140016080000c9
:020000040000fa
:0401180016080000c5
:020000040000fa
:04011c0016080000c1
:020000040000fa
:0401200016080000bd
:020000040000fa
:0401240016080000b9
:020000040000fa
:0401280016080000b5
:020000040000fa
:04012c0016080000b1
:020000040000fa
:0401300016080000ad
:020000040000fa
:0401340016080000a9
:020000040000fa
:0401380016080000a5
:020000040000fa
:04013c0016080000a1
:020000040000fa
:04014000160800009d
:020000040000fa
:040144001608000099
:020000040000fa
:040148001608000095
:020000040000fa
:04014c001608000091
:020000040000fa
:04015000160800008d
:020000040000fa
:040154001608000089
:020000040000fa
:040158001608000085
:020000040000fa
:04015c001608000081
:020000040000fa
:04016000160800007d
:020000040000fa
:040164001608000079
:020000040000fa
:040168001608000075
:020000040000fa
:04016c001608000071
:020000040000fa
:04017000160800006d
:020000040000fa
:040174001608000069
:020000040000fa
:040178001608000065
:020000040000fa
:04017c001608000061
:020000040000fa
:04018000160800005d
:020000040000fa
:040184001608000059
:020000040000fa
:040188001608000055
:020000040000fa
:04018c001608000051
:020000040000fa
:04019000fa0400006d
:020000040000fa
:040194001608000049
:020000040000fa
:040198001608000045
:020000040000fa
:04019c008a050000d0
:020000040000fa
:0401a000160800003d
:020000040000fa
:0401a4001608000039
:020000040000fa
:0401a8001608000035
:020000040000fa
:0401ac001608000031
:020000040000fa
:0401b000160800002d
:020000040000fa
:0401b4001608000029
:020000040000fa
:0401b8001608000025
:020000040000fa
:0401bc001608000021
:020000040000fa
:0401c000160800001d
:020000040000fa
:0401c4001608000019
:020000040000fa
:0401c8001608000015
:020000040000fa
:0401cc001608000011
:020000040000fa
:0401d000c80500005e
:020000040000fa
:0401d400060600001b
:020000040000fa
:0401d8001608000005
:020000040000fa
:0401dc001608000001
:020000040000fa
:0401e00016080000fd
:020000040000fa
:0401e40016080000f9
:020000040000fa
:0401e80016080000f5
:020000040000fa
:0401ec0016080000f1
:020000040000fa
:0401f00016080000ed
:020000040000fa
:0401f40016080000e9
:020000040000fa
:0401f80016080000e5
:020000040000fa
:0401fc0016080000e1
:020000040000fa
:0402000016080000dc
:020000040000fa
:0402040016080000d8
:020000040000fa
:0402080016080000d4
:020000040000fa
:04020c0016080000d0
:020000040000fa
:0402100016080000cc
:020000040000fa
:0402140016080000c8
:020000040000fa
:0402180016080000c4
:020000040000fa
:04021c0016080000c0
:020000040000fa
:0402200016080000bc
:020000040000fa
:0402240016080000b8
:020000040000fa
:0402280016080000b4
:020000040000fa
:04022c00f6070000d1
:020000040000fa
:04023000560700006d
:020000040000fa
:040234007607000049
:020000040000fa
:0402380016080000a4
:020000040000fa
:04023c0016080000a0
:020000040000fa
:04024000160800009c
:020000040000fa
:040244001608000098
:020000040000fa
:040248001608000094
:020000040000fa
:04024c001608000090
:020000040000fa
:04025000960700000d
:020000040000fa
:04025400b6070000e9
:020000040000fa
:04025800d6070000c5
:020000040000fa
:04025c001608000080
:020000040000fa
:04026000160800007c
:020000040000fa
:040264001608000078
:020000040000fa
:040268001608000074
:020000040000fa
:04026c001608000070
:020000040000fa
:04027000160800006c
:020000040000fa
:040274001608000068
:020000040000fa
:040278001608000064
:020000040000fa
:04027c001608000060
:020000040000fa
:04028000160800005c
:020000040000fa
:040284001608000058
:020000040000fa
:040288001608000054
:020000040000fa
:04028c001608000050
:020000040000fa
:04029000160800004c
:020000040000fa
:040294001608000048
:020000040000fa
:040298001608000044
:020000040000fa
:04029c001608000040
:020000040000fa
:0402a000160800003c
:020000040000fa
:0402a4001608000038
:020000040000fa
:0402a8001608000034
:020000040000fa
:0402ac001608000030
:020000040000fa
:0402b000160800002c
:020000040000fa
:0402b4001608000028
:020000040000fa
:0402b8001608000024
:020000040000fa
:0402bc001608000020
:020000040000fa
:0402c000160800001c
:020000040000fa
:0402c4001608000018
:020000040000fa
:0402c8001608000014
:020000040000fa
:0402cc001608000010
:020000040000fa
:0402d000160800000c
:020000040000fa
:0402d4001608000008
:020000040000fa
:0402d8001608000004
:020000040000fa
:0402dc001608000000
:020000040000fa
:0402e00016080000fc
:020000040000fa
:0402e40016080000f8
:020000040000fa
:0402e80016080000f4
:020000040000fa
:0402ec0016080000f0
:020000040000fa
:0402f00016080000ec
:020000040000fa
:0402f40016080000e8
:020000040000fa
:0402f80016080000e4
:020000040000fa
:0402fc0016080000e0
:020000040000fa
:0403000016080000db
:020000040000fa
:0403040016080000d7
:020000040000fa
:0403080016080000d3
:020000040000fa
:04030c0016080000cf
:020000040000fa
:0403100016080000cb
:020000040000fa
:0403140016080000c7
:020000040000fa
:0403180016080000c3
:020000040000fa
:04031c0016080000bf
:020000040000fa
:10040000af0b21000eff24000e0188000000000049
:10041000000020000000e000020032000001200087
:100420002002880014000700020307000000e0001b
:1004300003003a00202b22000100200002003700b8
:100440000000200001002000810f70000100320038
:100450000f000700000020000000e0000200320052
:100460000000020000000000740f02000000000005
:100470000040da000000fe00201120000000e00033
:1004800002003200002020009001880000000600d9
:10049000a1028800800478000000eb001f003700f4
:1004a000e284440054a0b4009905ba00e2844400f8
:1004b00054a0b4009906ba00e284440054a0b400e9
:1004c0000006eb00476fde00fd07b200ae018800ba
:1004d000636ce10003003a000ad801000000eb0061
:1004e0000e003700606ce10008003a00004deb00a0
:1004f0000a05e800020039003420ec000af0a000f0
:100500008b05e900f9ff3e00040037006168e10057
:10051000010032000086eb000b00070019c7ba008b
:100520001905ba000e04e00003003a000a00e000da
:10053000dbff3a0000000600fe07b200ae028800b2
:100540008a047800f5ff37000cd0a300e20f4d00bd
:100550001c003b0089027800354dba000a05e8000e
:10056000020039003420ec000af0a0008b05e900fd
:100570000f003200254dba000a05e80002003900dc
:100580003420ec000af0a0008b05e90008003200de
:100590000c00e0000600320015cdba000a05e800a4
:1005a000020039003420ec000af0a0008b05e900bd
:1005b0008984e80054a0b4000b00e000e2ff3a0098
:1005c000000006009902ba00055d78008b05e9007d
:1005d000f7ff3200c82ade00055d78008b05e900d0
:1005e000f3ff32000c00e000f1ff320019ddba0029
:1005f000eeff3700000000000000000000000000d7
:1006000000000000000000000000000000000000ea
:1006100000000000000000000000000000000000da
:1006200000000000000000000000000000000000ca
:1006300000000000000000000000000000000000ba
:1009f000000000003600f800809fbe00829fbe000d
:100a0000849fbe00869fbe003200f8003400f800cc
:100a100010002000a00188000020200000d0fe006f
:100a20000200fa00a08080000000e0000200320016
:100a3000a0808000000001005140800000002200e2
:100a4000008060000000e0000a0032008160800049
:100a5000010f7800b08080000000e0000400320048
:100a6000b28080009e0078000000eb0002000100d0
:100a70000ba8a900614080000040200000806000b9
:100a80000000e0000a00320051618000010f780090
:100a9000b08080000000e00004003200b2808000de
:100aa0009e00780010002000020001000d48a900ff
:100ab0006140800000802000008060000000e000b5
:100ac0000a00320061618000010f7800b080800070
:100ad0000000e00004003200b28080009e00780038
:100ae00020002000020001000d68a9000b48a900a9
:100af0000080fa003400f9003200f9004f03be0014
:100b00004f02be004f01be004f00be003600f9008c
:100b1000004006003600f800809fbe00829fbe00a5
:100b2000849fbe00869fbe003200f8003400f800ab
:100b300010002000a00188000020200000d0fe004e
:100b40000200fa0081608000010f7800b080800010
:100b50000000e00004003200b28080009e007800b7
:100b60000000eb00020001000ba8a9000080fa00c1
:100b70003400f9003200f9004f03be004f02be00fe
:100b80004f01be004f00be003600f90000400600d5
:100b90003600f800809fbe00829fbe00849fbe008a
:100ba000869fbe003200f8003400f80010002000dc
:100bb000a00188000020200000d0fe000200fa0002
:100bc00051618000010f7800b08080000000e000db
:100bd00004003200b28080009e00780010002000e7
:100be000020001000d48a9000080fa003400f9005d
:100bf0003200f9004f03be004f02be004f01be009d
:100c00004f00be003600f900004006003600f80034
:100c1000809fbe00829fbe00849fbe00869fbe0054
:100c20003200f8003400f80010002000a001880015
:100c30000020200000d0fe000200fa006161800068
:100c4000010f7800b08080000000e0000400320056
:100c5000b28080009e007800200020000200010089
:100c60000d68a9000080fa003400f9003200f90094
:100c70004f03be004f02be004f01be004f00be003a
:100c80003600f900004006003600f800809fbe00e4
:100c9000829fbe00849fbe00869fbe000000fa00b7
:100ca000c068a90020002000880e07000080fa001c
:100cb0004f03be004f02be004f01be004f00be00fa
:100cc0003600f900004006003600f800809fbe00a4
:100cd000829fbe00849fbe00869fbe000000fa0077
:100ce000c608a90070002000780e07000080fa00f6
:100cf0004f03be004f02be004f01be004f00be00ba
:100d00003600f900004006003600f800809fbe0063
:100d1000829fbe00849fbe00869fbe000000fa0036
:100d200020468000700060000000e00003003200f8
:100d3000c488a900a0002000640e0700214680009e
:100d400000022000008060000000e000030032008c
:100d5000c4a8a900900020005c0e07002146800076
:100d600000102000008060000000e000030032005e
:100d7000c508a900c0002000540e070020468000ce
:100d8000610060000000e00003003200c408a90018
:100d9000b00020004d0e0700ffff37003600f800be
:100da000809fbe00829fbe00849fbe00869fbe00c3
:100db0000000fa00c028a9000000eb00430e070065
:100dc0000080fa004f03be004f02be004f01be007c
:100dd0004f00be003600f900004006003600f80063
:100de000809fbe00829fbe00849fbe00869fbe0083
:100df0000000fa00c088a90030002000330e070070
:100e00000080fa004f03be004f02be004f01be003b
:100e10004f00be003600f900004006003600f80022
:100e2000809fbe00829fbe00849fbe00869fbe0042
:100e30000000fa002c0e0700c048a9001000200096
:100e4000220e07000080fa004f03be004f02be00d2
:100e50004f01be004f00be003600f9000040060002
:100e60003600f800809fbe00829fbe00849fbe00b7
:100e7000869fbe000000fa00908080000000e00025
:100e800002003200908080000000010005a8a90047
:100e90000080fa004f03be004f02be004f01be00ab
:100ea0004f00be003600f900004006003600f80092
:100eb000809fbe00829fbe00849fbe00869fbe00b2
:100ec0000000fa0000808000000001001048a90026
:100ed0000080fa004f03be004f02be004f01be006b
:100ee0004f00be003600f900004006003600f80052
:100ef000809fbe00829fbe00849fbe00869fbe0072
:100f00000000fa0010808000000001001068a900b5
:100f10000080fa004f03be004f02be004f01be002a
:100f20004f00be003600f900004006003600f80011
:100f3000809fbe00829fbe00849fbe00869fbe0031
:100f40000000fa0020808000000001001148a90084
:100f50000080fa004f03be004f02be004f01be00ea
:100f60004f00be003600f900004006003600f800d1
:100f7000809fbe00829fbe00849fbe00869fbe00f1
:100f80000000fa0030808000000001001168a90014
:100f90000080fa004f03be004f02be004f01be00aa
:100fa0004f00be003600f900004006003600f80091
:100fb000809fbe00829fbe00849fbe00869fbe00b1
:100fc0000000fa0040808000000001001188a900a4
:100fd0000080fa004f03be004f02be004f01be006a
:100fe0004f00be003600f900004006003600f80051
:100ff000809fbe00829fbe00849fbe00869fbe0071
:101000000000fa0050808000000001001028a900b4
:101010000080fa004f03be004f02be004f01be0029
:101020004f00be003600f900004006000040da0024
:101030000000fe00000005006022b800060220004b
:101040000000d0008180d2000482d2008582d200cc
:101050000000a0000202520083825a000300310007
:101060000202420083824a000000a1000603e90058
:10107000f3ff3a000000060080017800020037000c
:10108000b15978000201e9000200e000fcff3a00db
:041090000000060056
:020000040000fa
:10109400ba0e00005a0f0000d60e00000000000037
:1010a400660a0000900a0000ba0a0000de0a000086
:1010b40000000000020d00001e0e0000400b0000a6
:1010c4002e0c00005c090000640900006c0900009b
:1010d400740900007c09000084090000b4090000c0
:1010e4000e0a00002c0a0000340a00003c0a00002a
:1010f400440a0000860e00009e0e00004a8800008c
:10110400521400008e140000ae140000b614000047
:10111400ce140000d6140000ee140000f6140000f3
:10112400fe140000461500007e1500007613000032
:101134008e130000a6130000be130000f01500007b
:10114400b6150000d6130000181400002a1600007b
:101154006a160000821600009a160000b2160000fb
:101164000000000000000000ca160000ea1600009b
:10117400001700001e170000341700004817000075
:10118400681700008a170000921700000000000092
:10119400000000009a170000c0170000d8170000d4
:1011a4004a180000601800007c180000de180000d7
:1011b400f017000000000000000000000000000024
:1011c4000000000000000000000000004e190000b4
:1011d400641900007c19000084190000e61900005d
:1011e400d61a0000661a0000c01900006c1b00002b
:1011f400561b0000821b0000981b00000f0000001b
:1012040021000000561f0000861f0000b01f0000d0
:10121400b81f0000c01f0000cc1f00000000000029
:1012240000000000d81f0000e01f0000f81f0000ad
:1012340090210000c0210000ea210000f2210000fa
:10124400fa21000006220000000000000000000057
:10125400122200001a220000322200001420000092
:10126400442000006e200000762000007e20000054
:101274008a2000000000000000000000962000000a
:101284009e200000b6200000d220000002210000b1
:101294002c210000342100003c21000048210000e2
:1012a4000000000000000000542100005c21000048
:0412b40074210000a1
:020000040000fa
:1012b8000000fa0001eba8000080fa000000060018
:1012c8000000fa0001eba9000080fa000000060007
:1012d8000000fa0008cba8000080fa000000060011
:1012e8000000fa0008cba9000080fa000000060000
:1012f8000200fa00000f78000080fa0000000600e3
:101308000400fa00100798000000eb00000f7800b6
:101318001e009000e10f500008003200e10f50005d
:1013280003003900e20f50000700320009003700bf
:1013380081608000010f780006003700516180004d
:10134800010f78000300370061618000010f780009
:10135800000000001e0078000080fa00000006006f
:101368000400fa00100798000040eb00004f7800d6
:101378001e009000e10f50000f003200e10f5000f6
:1013880003003900e20f5000150032001e0037003c
:101398008059800022800a00000000000080fb00c5
:1013a80000f0a7000000ea000000ea004f00de009d
:1013b800004f78001400370080598000ff800a0031
:1013c800000000000080fb0000f0a7000000ea0019
:1013d8000000ea004f00de00004f78000a003700e6
:1013e8009059800000800a00000000000080fb0087
:1013f80000f0a7000000ea000000ea004f00de004d
:10140800004f7800000000001e4078000080fa00bd
:10141800000006000200fa00000f78001e007800a5
:1014280000407800634060000080fb0063006000bb
:101438004500dd0012588000f1f92f00810061009d
:1014480001007000105888000080fa0000000600b3
:101458000000fa002b48a8000080fa0000000600ef
:101468000000fa002b48a9000080fa0000000600de
:101478000000fa000b48a9000080fa0000000600ee
:101488000200fa00000f78001e0078000040780083
:101498006740600067406000674060000080fb00b4
:1014a800670060004800dd0062438000f18f2f0074
:1014b8008100610001007000604388000080fa002c
:1014c800000006000200fa00000f78001e007800f5
:1014d800e10f500008003200e10f5000030039000e
:1014e800e20f500007003200090037002ba8a800bf
:1014f800204ba800060037002d48a80021eba800c3
:10150800030037002d68a800220ba8000000000087
:101518000080fa00000006000200fa00000f7800c0
:101528001e007800e10f500008003200e10f500063
:1015380003003900e20f50000700320009003700ad
:101548002ba8a900204ba900060037002d48a900a8
:1015580021eba900030037002d68a900220ba90080
:10156800000000000080fa00000006000200fa00f7
:10157800000f78001e007800e10f500007003200cd
:10158800e10f500003003900e20f5000050032005f
:10159800060037000ba8a900040037000d48a90071
:1015a800020037000d68a900000000000080fa0062
:1015b800000006000400fa00000f780011079800e8
:1015c8001e007800e10f500011003200e10f5000ba
:1015d80003003900e20f50001900320024003700e0
:1015e8001e00900000407800674060000080fb000b
:1015f800670060004400dd0072438000f1f82f00ae
:1016080081006100010070007043880018003700f5
:101618001e00900000407800674060000080fb00da
:10162800670060004800dd00a2438000f18f2f00b2
:101638008100610001007000a04388000c003700a1
:101648001e00900000407800674060000080fb00aa
:10165800670060004c00dd00a2438000f1ff280015
:101668008100610001007000a043880000000000b4
:101678000080fa00000006000000fa00002bef00ce
:101688000006200010588800042bef00062bef00fe
:10169800082bef000a2bef000c2bef000e2bef00ae
:1016a800102bef00122bef00142bef004000280046
:1016b800005988001000200010598800302bef00d6
:1016c800322bef00382bef00402bef00482bef00b8
:1016d800502bef003a2bef00422bef004a2bef0084
:1016e800522bef003c2bef00442bef004c2bef006c
:1016f800542bef003e2bef00462bef004e2bef0054
:10170800562bef00682bef006c2bef00702bef00cf
:10171800742bef0000402000505b88000040200040
:10172800705b880000402000905b8800004020002b
:10173800b05b8800a02bef00a42bef00a82bef00d4
:10174800ac2bef00d02bef00d22bef00d42bef0007
:10175800d82bef0000302000b05e88000030200059
:10176800d05e8800f02bef00f22bef00f82bef0093
:10177800fa2bef00022cef000c2cef000e2cef00e0
:10178800102cef00122cef00142cef00162cef0099
:10179800182cef001a2cef001c2cef001e2cef0069
:1017a800202cef00222cef00242cef00262cef0039
:1017b800282cef002a2cef002c2cef002e2cef0009
:1017c800302cef00322cef00342cef0080e92000a1
:1017d8004c010700c0ec200064010700c0f620009f
:1017e800b20107000ba8a9002ba8a8000d48a90062
:1017f8002d48a8000d68a9002d68a8001160800078
:1018080000f02000010070001060880001eba800c3
:101818007a000700802bef0010002000105c880081
:10182800842bef00862bef00882bef008a2bef002c
:101838008c2bef0000102000705c88001000200046
:10184800805c8800922bef00942bef000080fa0058
:10185800000006000200fa0001eba9008160800088
:10186800010f78000ba8a9002ba8a90051618000de
:10187800010f78000d48a9002d48a900616180007a
:10188800010f78000d68a9002d68a900002bef0052
:101898000006200010588800042bef00062bef00ec
:1018a800082bef000a2bef000c2bef000e2bef009c
:1018b800102bef00122bef00142bef00202bef0062
:1018c800222bef00302bef00322bef00382bef00ec
:1018d800402bef00482bef00502bef003a2bef0086
:1018e800422bef004a2bef00522bef003c2bef006e
:1018f800442bef004c2bef00542bef003e2bef0056
:10190800462bef004e2bef00562bef00682bef0015
:101918006c2bef00702bef00742bef006a2bef009d
:101928006e2bef00722bef00762bef00802bef0071
:10193800822bef00842bef00862bef00882bef0023
:101948008a2bef008c2bef008e2bef00902bef00f3
:10195800922bef00942bef00a02bef00a42bef00ad
:10196800a82bef00ac2bef00d02bef00d22bef0011
:10197800d42bef00d82bef0000302000b05e880099
:1019880000302000d05e8800f02bef00f22bef0033
:10199800f82bef00fa2bef00002cef00022cef00e1
:1019a8000c2cef000e2cef00102cef00122cef0087
:1019b800142cef00162cef00182cef001a2cef0057
:1019c8001c2cef001e2cef00202cef00222cef0027
:1019d800242cef00262cef00282cef002a2cef00f7
:1019e8002c2cef002e2cef00302cef00322cef00c7
:1019f800342cef000080fa00000006000000fa0016
:101a080000eca80000000000016080000000280031
:101a1800008060000000e000fbff32000aeba80035
:101a28000080fa00000006000600fa00100798007f
:101a3800210798000000eb00000f78001e009000be
:101a48008000eb009200200003002000820f50006d
:101a5800838f58005f003e00000601000900370030
:101a68000e00370013003700180037001d0037003c
:101a78002200370027003700320037003d003700ca
:101a8800480037002e009000e20f500053003a0043
:101a980090012000000f7800630037002e009000ae
:101aa800e20f50004f003a0080012000000f78003c
:101ab8005d0037002e009000e10f50004b003a0007
:101ac800f0002000000f7800570037002e0090002b
:101ad800e10f500047003a00e0002000000f7800b6
:101ae800510037002e009000e10f500043003a00eb
:101af800d0002000000f78004b0037002e00900027
:101b0800e10f50003f003a00c0002000000f7800ad
:101b1800450037002e009000e10f500003003a0006
:101b2800a0002000000f78003f0037002e00900032
:101b3800e20f500035003a00b0002000000f780096
:101b4800390037002e009000e10f500003003a00e2
:101b580080002000000f7800330037002e0090002e
:101b6800e20f50002b003a0090002000000f780090
:101b78002d0037002e009000e10f500003003a00be
:101b880060002000000f7800270037002e0090002a
:101b9800e20f500021003a0070002000000f78008a
:101ba800210037002e009000e10f500003003a009a
:101bb80040002000000f78001b0037002e00900026
:101bc800e20f500017003a0050002000000f780084
:101bd8001500370000000000130037000000000067
:101be80011003700000000000f003700000000005f
:101bf8000d003700000000000b0037000000000057
:101c0800090037000000000007003700000000004e
:101c18000500370000000000030037000000000046
:101c280001003700000000001e0078000080fa0064
:101c3800000006000800fa00100798002107980025
:101c480032079800be0090002e00900076ff070033
:101c5800000f78001e009000e10f500010003200c5
:101c6800e10f500003003900e20f50001800320065
:101c7800220037001e007800004078007f40600096
:101c88000080fb007f006000125c800001fe2f00d6
:101c98008100610001007000105c880017003700a7
:101ca8001e007800004078007f4060000080fb0044
:101cb8007f0060004800dd00725c8000f10f2e009c
:101cc8008100610001007000705c88000b00370023
:101cd8001e007800004078007f4060000080fb0014
:101ce8007f006000825c800001fe2f00810061009f
:101cf80001007000805c8800000000000080fa008d
:101d0800000006000200fa00000f78001e007800ac
:101d18000000e000020032009e007800a1808800e8
:101d28000080fa00000006000000fa000080fa00b7
:101d3800000006000000fa0051408000004020002a
:101d4800008060000000e00006003200a0808000f3
:101d58000000e00002003200a080800000000100c6
:101d68000b48a9000080fa00000006000200fa00f3
:101d7800000f78001e0078000000e000020032002a
:101d88009e007800b18088000080fa0000000600fc
:101d98000400fa00000f7800110798000080fa008c
:101da800000006000400fa00100798001e009000ca
:101db800e10f500013003200e10f5000030039001a
:101dc800e20f50001e0032003600370080598000b4
:101dd800640060000000e00027003200816080009d
:101de800010f7800b08080000000e000240032007d
:101df800b28080009e0078001e0090000200010062
:101e08002800370081598000000028000080600009
:101e18000000e0001c00320051618000010f7800d2
:101e2800b08080000000e00019003200b28080001d
:101e38009e0078001e009000020001001900370083
:101e480090598000610060000000e000120032003c
:101e580061618000010f7800b08080000000e00020
:101e68000f003200b28080009e0078001e009000b3
:101e7800020001000b0037000000000009003700d5
:101e880000000000070037000000000005003700d0
:101e980000000000030037000000000001003700c8
:101ea800000000000080fa00000006000200fa00ae
:101eb800000f78001e0078000000e00002003200e9
:101ec8009e007800c18088000080fa0000000600ab
:101ed8000200fa00000f78000080fa0000000600f7
:101ee8009200fa00e7090700e00620000e00400013
:101ef800260107004f02b000c0fd2f000f00400070
:101f0800e10620008100470011000900311878001f
:101f18004002b1000e007800670107004f02b100cf
:101f2800e20620008e007800c002210050fc070065
:101f38005081800000119000c10221001000200093
:101f48000200010050818000200090000000010084
:101f58000000000050818000300090000000010067
:101f68000004a2000004e000faff3a00508180005b
:101f78004000900000000100000000005081800037
:101f880030009000000001000004e000fbff3a0070
:101f980000902000d1032000d8090700d2ff3700a5
:101fa8000200fa00000f78001e007800cf80de00e3
:101fb800b200200003002000820f5000838f5800d9
:101fc80085003e00000601000b00370014003700b2
:101fd8001d003700260037002f0037003800370073
:101fe800410037004a003700530037005c003700d3
:101ff800650037006e003700a073800088800a00f3
:10200800000000000080fb0000f0a7000000ea00cc
:102018000000ea004f00de00004078006f00370043
:10202800a073800099800a00000000000080fb0077
:1020380000f0a7000000ea000000ea004f00de0000
:102048000040780065003700a0738000aa800a006d
:10205800000000000080fb0000f0a7000000ea007c
:102068000000ea004f00de00004078005b00370007
:10207800a0738000bb800a00000000000080fb0005
:1020880000f0a7000000ea000000ea004f00de00b0
:102098000040780051003700a0738000cc800a000f
:1020a800000000000080fb0000f0a7000000ea002c
:1020b8000000ea004f00de000040780047003700cb
:1020c800a0738000dd800a00000000000080fb0093
:1020d80000f0a7000000ea000000ea004f00de0060
:1020e800004078003d003700a0738000ee800a00b1
:1020f800000000000080fb0000f0a7000000ea00dc
:102108000000ea004f00de0000407800330037008e
:10211800a0738000ff800a00000000000080fb0020
:1021280000f0a7000000ea000000ea004f00de000f
:102138000040780029003700c072800022800a0021
:10214800000000000080fb0000f0a7000000ea008b
:102158000000ea004f00de00004078001f00370052
:10216800c072800033800a00000000000080fb007d
:1021780000f0a7000000ea000000ea004f00de00bf
:102188000040780015003700c072800044800a00c3
:10219800000000000080fb0000f0a7000000ea003b
:1021a8000000ea004f00de00004078000b00370016
:1021b800c072800055800a00000000000080fb000b
:1021c80000f0a7000000ea000000ea004f00de006f
:1021d80000407800010037000040eb000080fa0062
:1021e800000006000200fa00000f78001e007800c8
:1021f800e30f500030003200e30f500007003c00ae
:10220800e10f500018003200e10f500020003c00a0
:102218000000e0000a00320059003700e50f5000c6
:1022280039003200e50f50002d003500e60f500050
:102238003f003200e70f50004700320050003700df
:10224800a073800000800a00000000000080fb00ee
:1022580000f0a7000000ea000000ea004f00de00de
:102268000040780047003700a073800011800a0002
:10227800000000000080fb0000f0a7000000ea005a
:102288000000ea004f00de00004078003d00370003
:10229800a073800022800a00000000000080fb007c
:1022a80000f0a7000000ea000000ea004f00de008e
:1022b8000040780033003700a073800033800a00a4
:1022c800000000000080fb0000f0a7000000ea000a
:1022d8000000ea004f00de000040780029003700c7
:1022e800a073800044800a00000000000080fb000a
:1022f80000f0a7000000ea000000ea004f00de003e
:10230800004078001f003700a073800055800a0045
:10231800000000000080fb0000f0a7000000ea00b9
:102328000000ea004f00de0000407800150037008a
:10233800a073800066800a00000000000080fb0097
:1023480000f0a7000000ea000000ea004f00de00ed
:10235800004078000b003700a073800077800a00e7
:10236800000000000080fb0000f0a7000000ea0069
:102378000000ea004f00de0000407800010037004e
:102388000040eb000080fa00000006002c00fa0074
:10239800881f7800000478000000eb00000f780028
:1023a800060037001e007800fdfe07001e017800b9
:1023b800e800410000f778001e0fe8001e007800d2
:1023c800eb0f5000f7ff34000000eb0010079800f7
:1023d800080037001e00900082ff07009e00900052
:1023e800f480400000f778001e0090000000e8002c
:1023f800100798001e009000e40f5000f5ff34000d
:102408000000eb00200798000b0037002e0090001a
:10241800a2000700800078002e00900069004000ac
:102428000000400068004000013778002e0090004e
:102438000000e800200798002e009000e20f5000ee
:10244800f2ff34000000eb00300798000b00370063
:102458003e00900096000700800078003e00900043
:102468006c00400000004000680040000137780020
:102478003e0090000000e800300798003e00900001
:10248800e30f5000f2ff34008e0007004017980059
:102498009000070050179800e80047001100090055
:1024a800311c78004802b100080078004f04780019
:1024b8000080fa00000006000c00fa00500798009f
:1024c8000000eb00000f78001e00780000004000bc
:1024d800de00900000804000a10a2000010878007a
:1024e8001e0fe8001e00780000004000de0090008b
:1024f8000080400021002000010878001e0fe8003d
:102508000000eb00100798000f0037001e0078004d
:1025180000004000de0090000080400062fd2f00b7
:102528000e0141009e00900081004100914078001a
:102538008180fb00010878001e0fe8001e00900053
:102548000000e800100798001e009000eb0f5000f4
:10255800eeff34000000eb00200798001000370061
:102568001e00780000004000de009000008040005f
:10257800ae009000ec80400062fd2f000e0141008b
:1025880081004100914078008180fb0001087800bb
:102598001e0fe8002e0090000000e80020079800b9
:1025a8002e009000e40f5000edff34000000eb0017
:1025b80030079800100037001e0078000000400027
:1025c800de009000808040003e00900069004000de
:1025d8000000400062fd2f000e0141000000410094
:1025e80010007800800878001e0fe8003e00900078
:1025f8000000e800300798003e009000e20f50000d
:10260800edff34000000eb00400798001000370091
:102618001e00780000004000de009000808040002e
:102628004e0090006c0040000000400062fd2f004a
:102638000e01410000004100100078008008780079
:102648001e0fe8004e0090000000e80040079800c8
:102658004e009000e30f5000edff34001e0078009c
:1026680000004000de00900000804000beb89700e7
:10267800010878001e0fe8001e00780000004000e6
:10268800de00900000804000ceb897000108780076
:102698001e0fe8000080fa00000006000200fa00a1
:1026a800000f78000000eb000080fa000000060030
:1026b8000200fa00000f78000000eb000080fa002a
:1026c800000006000000fa000000eb000080fa009d
:1026d800000006000000fa000000eb000080fa008d
:1026e800000006000000fa00d00f800099800a0060
:1026f800000000000080fb0000f0a7000000ea00d6
:102708000000ea004f00de00004078000080fa0078
:10271800000006000000fa00d00f800088800a0040
:10272800000000000080fb0000f0a7000000ea00a5
:102738000000ea004f00de00004078000080fa0048
:10274800000006000000fa00d00f800011800a0087
:10275800000000000080fb0000f0a7000000ea0075
:102768000000ea004f00de00004078000080fa0018
:10277800000006000000fa00d00f800000800a0068
:10278800000000000080fb0000f0a7000000ea0045
:102798000000ea004f00de00004078000080fa00e8
:1027a800000006000400fa00100798000040eb0043
:1027b800004f78001e0090000000e0000300320087
:1027c800e10f50000b00320014003700c00e8000eb
:1027d80000800a00000000000080fb0000f0a70055
:1027e8000000ea000000ea004f00de00004f780019
:1027f8000a003700c00e800011800a0000000000a7
:102808000080fb0000f0a7000000ea000000ea00da
:102818004f00de00004f7800000000001e407800e6
:102828000080fa00000006000400fa001007980073
:102838000040eb00004f78001e0090000000e00010
:1028480003003200e10f5000090032001000370089
:10285800c00e80006100600000f0a7000000ea00e0
:102868000000e9004f00de00004f78000800370044
:10287800c00e80006200600000f0a7000000ea00bf
:102888000000e9004f00de00004f78000000000063
:102898001e4078000080fa00000006000000fa00e0
:1028a800d221ef00e16521000000eb00e7000700fe
:1028b8004166210010002000e4000700c0672100e5
:1028c80002010700406921000c010700c06a2100cd
:1028d80016010700406c2100200107001048a900dc
:1028e8003048a8001068a9003068a8001148a9005d
:1028f8003148a8001168a9003168a8001188a9000a
:102908003188a8001028a9003028a8000080fa0003
:10291800000006000000fa00d221ef003048a900ac
:102928001048a9003068a9001068a9003148a9001a
:102938001148a9003168a9001168a9003188a900c7
:102948001188a9003028a9001028a9000080fa00e1
:10295800000006000000fa00d321a8000080fa0059
:10296800000006000000fa00a00e800088800a001f
:10297800000000000080fb0000f0a7000000ea0053
:102988000000ea004f00de00004078000080fa00f6
:10299800000006000000fa00d321a9000080fa0018
:1029a800000006000000fa00a00e800099800a00ce
:1029b800000000000080fb0000f0a7000000ea0013
:1029c8000000ea004f00de00004078000080fa00b6
:1029d800000006000000fa00d301a8000080fa00f9
:1029e800000006000000fa00d301a9000080fa00e8
:1029f800000006000200fa0030002000000f7800f6
:102a0800a10e800000002800008060000000e000a7
:102a18000300320040002000000f78001600370045
:102a2800a00e8000dc800a00000000000080fb008f
:102a3800e10f500007003200e20f5000080032009a
:102a48000000e00009003a000000eb00000f7800e9
:102a58000900370020002000000f7800060037002a
:102a680010002000000f780003003700300020001d
:102a7800000f7800000000001e0078000080fa00b7
:102a8800000006000600fa001007980021079800c9
:102a98000000eb00000f78000e0037001dff070054
:102aa8000004a2000004e0000e003200f10f8000d4
:102ab8001e009000010878001e0090000080e800c9
:102ac800100798002e0090000000e90020079800e9
:102ad8001e0fe8002e0090000000e000efff3a0013
:102ae80001003700000000001e0078000080fa0096
:102af800000006000600fa00100798002107980059
:102b08000000eb00000f78000e0037000dff0700f3
:102b18000004a2000004e0000e0032001e00900035
:102b280010007800e00f88001e0090000080e80088
:102b3800100798002e0090000000e9002007980078
:102b48001e0fe8002e0090000000e000efff3a00a2
:102b580001003700000000001e0078000080fa0025
:102b6800000006000600fa001007980021079800e8
:102b78000040eb00004f78001e009000e10f50006d
:102b880011003a001000200027ff07000004e000b1
:102b98000a0032002e00900010007800f00e880025
:102ba8002e0090000080e80010007800000f8800d8
:102bb80010c0b300004f7800040037000040eb005d
:102bc800004f780001003700000000001e40780028
:102bd8000080fa00000006000600fa0010079800be
:102be800210798000040eb00004f78001e0090007d
:102bf8000000e00011003a000000eb00e9fe0700c9
:102c08000004e0000a003200d10e80002e0090007f
:102c1800010878002e0090000080e800e10e800096
:102c28000108780010c0b300004f78000400370096
:102c38000040eb00004f7800010037000000000062
:102c48001e4078000080fa00000006000400fa0028
:102c5800000f7800110798001e0078000000e000bf
:102c680003003200e10f5000070032000f00370068
:102c78001e0090000000e000090032009e00900055
:102c880001808800090037001e0090000000e00065
:102c9800050032009e009000118088000300370074
:102ca8000000000001003700000000000080fa006a
:102cb800000006000000fa000080fa00000006008c
:102cc8000000fa000080fa00000006000200fa0086
:102cd800000f78001e0078000000e00002003200bb
:102ce8009e007800218088000080fa00000006001d
:102cf8000000fa000080fa00000006000200fa0056
:102d0800000f78001e0078000000e000020032008a
:102d18009e007800318088000080fa0000000600dc
:102d28000000fa000080fa00000006000200fa0025
:102d3800000f78001e0078000000e000020032005a
:102d48009e007800418088000080fa00000006009c
:102d58000000fa000080fa00000006000200fa00f5
:102d6800000f78001e0078000000e000020032002a
:102d78009e007800518088000080fa00000006005c
:102d88000000fa000080fa00000006000000fa00c7
:102d98003822ef0000802000d011880000082000b1
:102da800e0118800e0022000f0118800101a2000cd
:102db800001288004222ef0039e2a80038a2a800d9
:102dc8003882a8000080fa00000006000000fa001f
:102dd8003822ef003a22ef0000082000e0118800b6
:102de800e0022000f01188004022ef004222ef00ac
:102df8000080fa00000006000000fa000000000051
:102e0800f0118000620060000000e000fcff3a0062
:102e1800e0118000620060000000e0000100320064
:102e28003c22a90020128000004078000080fa00af
:102e3800000006000200fa00004f780000000000c1
:102e4800f0118000700060000000e000fcff3a0014
:102e58001e80fb00401288000080fa000000060077
:102e68000000fa00f01180006200600000f0a70086
:102e78000000ea000000e9004f00de000040780092
:102e88000080fa00000006000000fa00f01180003f
:102e9800700060000000e00007003a00c1118000e7
:102ea80000022000008060000000e0000200320004
:102eb80010002000010037000000eb0000407800ff
:102ec8000080fa00000006000000fa00e11180000e
:102ed80000082000008060000000e00007003200c9
:102ee800f111800000022000008060000000e00076
:102ef8000200320010002000010037000000eb0043
:102f0800004078000080fa00000006000000fa0087
:102f180038a2a8000080fa00000006000000fa00ad
:102f280038a2a9000080fa00000006000200fa009a
:102f3800004f78005cc2a9001e80fb0061006000a1
:102f48004200dd00e11280000120a10001007000b4
:102f5800e01288001e80fb00610060004600dd0072
:102f6800c11180000160a10001007000c01188003b
:102f78000080fa00000006000000fa00c01180007e
:102f880066800a00000000000080fb0000f0a70037
:102f98000000ea000000ea004f00de000040780070
:102fa8000080fa00000006000000fa00e01280002d
:102fb80022800a00000000000080fb0000f0a7004b
:102fc8000000ea000000ea004f00de000040780040
:102fd8000080fa00000006000000fa001e30ef0032
:102fe800e0118000680060000000e000030032008b
:102ff800f08080000000a000f0808800e1118000cf
:1030080000042000008060000000e000030032009f
:10301800f08080000010a000f0808800e01180009f
:10302800620060000000e00004003200f0808000d0
:103038000020a000f08088003c22a900e011800058
:10304800610060000000e00004003200f0808000b1
:103058000030a000f08088003c02a900e111800047
:1030680000022000008060000000e0000400320040
:10307800f08080000040a000f08088003ca2a900f9
:10308800f08080000080fa00000006000400fa00ca
:10309800008fbe001e007800001288001e00be00cf
:1030a8004008de00000078006f0060001012880001
:1030b8000080fa00000006000400fa0010128000e8
:1030c8008000eb00008fbe001e00be00c001dd00c6
:1030d80002002000001280008000eb00001f710039
:1030e800019771001e00be000080fa000000060073
:1030f8000800fa0020079800310798002e01900078
:10310800be0190003000200001002000800f510017
:10311800818f59000e0036002e009000be009000ee
:10312800e00f5000e08f5800090032003b62a80011
:1031380038e2a9002e019000be0190000090200006
:10314800d1032000baf70700008fbe001000370037
:103158003b62a90038e2a8002e019000be01900051
:103168004218dd00ce10de00810070004210dd0044
:103178000001be0000902000d1032000acf707003a
:103188000081eb008081eb00021f4000039748009c
:103198001e007800001288001e00be004008de00f5
:1031a800000078006f006000101288000080fa00ac
:1031b800000006000800fa00bfff0700200798007b
:1031c80031079800d1118000008020000080600045
:1031d8000000e0000c0032002e009000be009000bd
:1031e800e00f5000e08f5800070032002e019000d9
:1031f800be01900000902000d10320008cf707004a
:10320800008fbe0020003700c11180000008200098
:10321800008060000000e0000e0032002e009000e8
:10322800be00900061014000e08148004218dd00c6
:10323800ce10de00810070004210dd000001be00eb
:1032480000902000d103200079f70700008fbe000e
:103258000d0037002e009000be0090006101400074
:10326800e08148004418dd00cc10de0081007000c9
:103278004410dd000001be0000902000d1032000b2
:103288006bf70700008fbe001e00be000080fa002a
:10329800000006000000fa00bc22ef00ae22ef009a
:1032a800b022ef00b422ef00c422ef00c622ef00e4
:1032b80010022000601588000080fa000000060057
:1032c8000000fa000a000700bc22ef00ac22ef0061
:1032d800ae22ef00b022ef0080022000a015880087
:1032e800c422ef00c622ef000080fa0000000600aa
:1032f8000000fa00ade2a9000080fa000000060014
:103308000400fa00204798000040eb00004f7800c6
:103318006115800000002800008060000000e000c7
:1033280012003a002e4090000080fb00c200dd0031
:10333800009028000080400010007800e015880008
:103348002e4090000080fb004200dd008080e800f5
:103358000090280000804000100078006015880068
:10336800ade2a80010c0b300004f78001e407800fe
:103378000080fa00000006000200fa00004f780002
:1033880000000000a0158000620060000000e0005e
:10339800fcff3a001e80fb00c015880000000000fa
:1033a800a115800000022000008060000000e000fd
:1033b800fbff3a00c0158000004078000080fa004a
:1033c800000006000a00fa0030079800410798003c
:1033d800be009000210798000000eb00000f780065
:1033e8000000eb001007980000000000a015800006
:1033f800620060000000e000fcff3a00180037009f
:10340800a0158000620060000000e00006003a009d
:103418002e0090001e004000104078000080fb0045
:10342800c01588001e0fe800a115800000022000ca
:10343800008060000000e00009003a00ae00900043
:103448001e00900000804000c11580008140780077
:10345800014878001e0090000000e800100798005e
:103468004e0090009e007800808f5000e4ff3900e5
:103478000e003700a11580000002200000806000c7
:103488000000e00009003a00ae0090001e00900025
:1034980000804000c1158000814078000148780014
:1034a8001e0090000000e800100798009e009000a1
:1034b8004e009000808f5000eeff39000080fa0027
:1034c800000006000c00fa00400798005107980019
:1034d800ce009000210798000000eb00000f780054
:1034e8000000eb001007980000000000a015800005
:1034f800620060000000e000fcff3a0014003700a2
:10350800a0158000620060000000e00006003a009c
:103518002e0090001e004000104078000080fb0044
:10352800c01588001e0fe800a115800000022000c9
:10353800008060000000e00005003a00c01580002f
:10354800604798001e0090000000e80010079800ef
:103558005e0090009e007800808f5000e8ff3900e0
:103568000a003700a11580000002200000806000da
:103578000000e00005003a00c01580006047980090
:103588001e0090000000e800100798009e009000c0
:103598005e009000808f5000f2ff39000080fa0032
:1035a800000006000c00fa00400798005107980038
:1035b800ce009000210798000040eb00604798007b
:1035c8000000eb00000f78000000eb0010079800e7
:1035d80000000000a0158000620060000000e0000c
:1035e800fcff3a0016003700a0158000620060005a
:1035f8000000e00004003a006e4090000080fb00ec
:10360800c01588001e0fe800a115800000022000e8
:10361800008060000000e00009003a00ae00900061
:103628001e00900000804000c11580008140780095
:10363800014878001e0090000000e800100798007c
:103648005e0090009e007800808f5000e6ff3900f1
:103658000e003700a11580000002200000806000e5
:103668000000e00009003a00ae0090001e00900043
:1036780000804000c1158000814078000148780032
:103688001e0090000000e800100798009e009000bf
:103698005e009000808f5000eeff39000080fa0035
:1036a800000006000200fa00004f78000000000049
:1036b800a0158000620060000000e000fcff3a00f6
:1036c8001e80fb00c01588000080fa00000006007c
:1036d8000000fa0000000000a11580000002200090
:1036e800008060000000e000fbff3a00c015800089
:1036f800004078000080fa00000006000000fa0090
:10370800a1158000000220000080600000f0a700e2
:103718000000ea000000e9004f00de0000407800e9
:103728000080fa00000006000000fa00a0158000e2
:103738006200600000f0a7000000ea000000e90055
:103748004f00de00004078000080fa00000006000c
:103758000400fa00100798000040eb00004f7800c2
:103768001e0090000000e00002003d0010c0b30001
:10377800004f78001e4078000080fa000000060024
:103788000400fa00100798000040eb00004f780092
:103798009e00900000002400008060000000e0000f
:1037a8000200320010c0b300004f78001e407800bd
:1037b8000080fa00000006000400fa0010079800d4
:1037c8000040eb00004f78009e0090000020200091
:1037d800008060000000e0000200320010c0b3006a
:1037e800004f78001e4078000080fa0000000600b4
:1037f8000400fa00100798000040eb00004f780022
:103808009e00900000082000008060000000e0009a
:103818000200320010c0b300004f78001e4078004c
:103828000080fa00000006000400fa001007980063
:103838000040eb00004f78009e009000000420003c
:10384800008060000000e0000200320010c0b300f9
:10385800004f78001e4078000080fa000000060043
:103868000400fa00100798000040eb00004f7800b1
:103878001e009000700060000000e00002003200ae
:1038880010c0b300004f78001e4078000080fa0096
:10389800000006000200fa00000f78009e80ea008f
:1038a800007c800000806000007c88000080fa00b6
:1038b800000006000000fa00007c80000080fa008a
:1038c800000006000200fa00faff0700000f780067
:1038d8001e0078009eff07000004e000020032008e
:1038e80000002800ebff07001e007800a4ff070077
:1038f8000004e0000200320000002400e5ff070099
:103908001e007800acff07000004e000020032004f
:1039180000202000dfff07001e007800b4ff07002a
:103928000004e0000200320000082000d9ff070070
:103938001e007800bcff07000004e000020032000f
:1039480000042000d3ff07001e007800c4ff070012
:103958000004e0000200320000012000cdff070053
:103968000080fa00000006000000fa00802fef0037
:103978000080fa00000006000000fa00c3e8a80072
:1039880000000000000000000080fa0000000600af
:103998000000fa00c3e8a9000000000000000000d1
:1039a8000080fa00000006000000fa00f8ff070097
:1039b8001f030700f0ff070080db210061000700fc
:1039c80025a8a8000080fa00000006000000fa0000
:1039d80000002800e00288000080fa0000000600cd
:1039e8000000fa00000024000003880010c0b300a3
:1039f8000cf0b7000080fa00000006000000fa0092
:103a08000c70ef00000000004003800061006000bf
:103a18000000e000fcff3200800020002003880046
:103a28000080fa00000006000200fa000040eb00e7
:103a3800004f78004003800061006000004078007b
:103a48000004e0000200320010c0b300004f78000c
:103a58001e4078000080fa00000006000000fa000e
:103a68000cd0bf000080fa00000006000400fa0035
:103a78006000b800008fbe00b00380008000eb003b
:103a8800c000dd0000002000008fbe00a003800001
:103a98008000eb003e017000ae8170000200be00a5
:103aa8000080fa00000006000400fa006000b80078
:103ab800008fbe00d00380008000eb00c000dd0056
:103ac80000002000008fbe00c00380008000eb00d3
:103ad8003e017000ae8170000200be000080fa0056
:103ae800000006000200fa000000eb00000f78005a
:103af80041038000100e2000008f60001e00780037
:103b08000080fa00000006000400fa006000b80017
:103b1800008fbe00700380008000eb00c000dd0055
:103b280000002000008fbe00600380008000eb00d2
:103b38003e017000ae8170000200be000080fa00f5
:103b4800000006000200fa00000f78001e0078004e
:103b58000000e000020032009e007800918088009a
:103b68000080fa00000006000000fa000080fa0059
:103b7800000006000000fa00a1438000f08f2f002b
:103b8800008060000080a000a0438800a14380005e
:103b9800f0ff28000080600000c0a000a04388005b
:103ba80071438000f0f82f00008060000040a00002
:103bb80070438800b1428000f0f82f000080600058
:103bc8000040a000b042880001448000f08f2f0020
:103bd800008060000080a00000448800014480004c
:103be800f0ff28000080600000c0a00000448800aa
:103bf80021448000f08f2f00008060000080a0002a
:103c0800204488003144800080ff2f00008060003d
:103c18000000a0003044880001448000f0f82f0024
:103c2800008060000040a00000448800214480001b
:103c3800f0ff28000080600000c0a0002044880039
:103c48000080fa00000006000000fa00a14380008e
:103c5800f08f2f000080600000a0a000a043880023
:103c6800a1438000f0ff28000080600000e0a00071
:103c7800a043880071438000f0f82f0000806000a6
:103c88000060a00070438800b1428000f0f82f0067
:103c9800008060000060a000b042880001448000fd
:103ca800f08f2f000080600000a0a0000044880072
:103cb80001448000f0ff28000080600000e0a000c0
:103cc8000044880021448000f08f2f0000806000ad
:103cd80000a0a000204488003144800080ff2f000d
:103ce800008060000020a00030448800014480006b
:103cf800f0f82f00008060000060a00000448800f9
:103d080021448000f0ff28000080600000e0a0004f
:103d1800204488000080fa00000006000000fa0035
:103d2800062eef0000022000107188003e2eef00e2
:103d38005a2eef00762eef00f00120001070880058
:103d480000fd2f00f070880070ff2f00d0718800f0
:103d580030fc2f00b0728800f00f200090738800ac
:103d68000a2eef00262eef00422eef005e2eef0007
:103d78007a2eef000c2eef00282eef00442eef00d5
:103d8800602eef007c2eef00082eef00242eef00af
:103d9800402eef005c2eef00782eef00f00120009f
:103da8000070880000082000e0708800700c200077
:103db800c071880000c02700a0728800702eef0034
:103dc8000000eb0051052000b1468800a10a200040
:103dd800b14688000068880060c4b3002cedb700c5
:103de80040c2b30028edb700916c8000f00f2c00a2
:103df800808060000050200001007000906c8800f6
:103e0800016c8000f00f2c000080600000c0a00052
:103e1800006c8800016c800000fc2f0000806000ae
:103e2800f000b300006c8800116c8000f00f2c00cb
:103e3800808060000020210001007000106c880064
:103e4800116c800000fc2f00008060001001b3009e
:103e5800106c8800216c8000f00f2c00008060003e
:103e68000080a000206c8800a0c2b3002dedb70030
:103e7800516c800000fc2f00008060006000b300df
:103e8800506c88000080200051052000b146880051
:103e9800a10a2000b1468800006888000080fa0066
:103ea800000006000000fa0050002000e04d8800e5
:103eb800be29ef00c029ef0000102000104e880036
:103ec800c629ef00c829ef00cc29ef00ce29ef0062
:103ed80000c42900804e8800d229ef00d429ef00c1
:103ee80000e22400c04e8800dc29ef00de29ef0044
:103ef80020ff210030000700bde9a8000080fa007b
:103f0800000006000000fa00bde9a900bc29ef0086
:103f1800be29ef00c029ef0000102000104e8800d5
:103f2800c629ef00c829ef00cc29ef00ce29ef0001
:103f38000080eb00804e88000080eb00904e8800e7
:103f4800d429ef00d829ef00dc29ef00de29ef00a3
:103f58000080fa00000006000000fa00bde9a80091
:103f68000080fa00000006000000fa00bde9a90080
:103f78000080fa00000006000200fa00000f780036
:103f88009e007800814e88000080fa00000006003c
:103f98000200fa00000f78009e007800c14e8800e9
:103fa8000080fa00000006000000fa00c8c9a80056
:103fb8000080fa00000006000200fa00000f7800f6
:103fc8001e0078000000e000020032009e00780029
:103fd800118188000080fa00000006000000fa0045
:103fe8000080fa00000006000000fa00214080006e
:103ff80000202000008060000000e0000600320081
:10400800108180000000e000020032001081800072
:10401800000001000528a9000080fa000000060041
:104028000000fa0050002000a04b88007629ef001d
:104038007829ef0000102000d04b88007e29ef007f
:104048008029ef008429ef008629ef0000c42900a9
:10405800404c88008a29ef008c29ef0000e22400f8
:10406800804c88009429ef009629ef00000b22006d
:104078003000070075e9a8000080fa00000006007b
:104088000000fa0075e9a9007429ef007629ef000d
:104098007829ef0000102000d04b88007e29ef001f
:1040a8008029ef008429ef008629ef000080eb00cb
:1040b800404c88000080eb00504c88008c29ef00b1
:1040c8009029ef009429ef009629ef000080fa006c
:1040d800000006000000fa0075e9a8000080fa0058
:1040e800000006000000fa0075e9a9000080fa0047
:1040f800000006000200fa00000f78009e00780019
:10410800414c88000080fa00000006000200fa0016
:10411800000f78009e007800814c88000080fa002b
:10412800000006000000fa0080c9a8000080fa001c
:10413800000006000200fa00000f78001e00780058
:104148000000e000020032009e0078003181880003
:104158000080fa00000006000000fa000080fa0063
:10416800000006000000fa00114080000010200046
:10417800008060000000e00006003200308180000e
:104188000000e000020032003081800000000100e1
:104198000308a9000080fa00000006000000fa00e9
:1041a80050002000804a88005229ef005429ef006f
:1041b80000102000b04a88005a29ef005c29ef005f
:1041c8006029ef006229ef0000c42900204b880015
:1041d8006629ef006829ef0000e22400604b8800a0
:1041e8007029ef007229ef00e01622003000070066
:1041f80051e9a8000080fa00000006000000fa005b
:1042080051e9a9005029ef005229ef005429ef0085
:1042180000102000b04a88005a29ef005c29ef00fe
:104228006029ef006229ef000080eb00204b880036
:104238000080eb00304b88006829ef006c29ef0004
:104248007029ef007229ef000080fa0000000600d4
:104258000000fa0051e9a8000080fa0000000600fa
:104268000000fa0051e9a9000080fa0000000600e9
:104278000200fa00000f78009e007800214b8800a9
:104288000080fa00000006000200fa00000f780023
:104298009e007800614b88000080fa00000006004c
:1042a8000000fa005cc9a8000080fa0000000600bf
:1042b8000200fa00000f78001e0078000000e000fd
:1042c800020032009e007800418188000080fa00d8
:1042d800000006000000fa000080fa000000060056
:1042e8000000fa0001408000000820000080600003
:1042f8000000e00006003200408180000000e0007d
:1043080002003200408180000000010000e8a9009e
:104318000080fa00000006000000fa0050002000ab
:10432800c04c88009a29ef009c29ef00001020005b
:10433800f04c8800a229ef00a429ef00a829ef007b
:10434800aa29ef0000c42900604d8800ae29ef00bb
:10435800b029ef0000e22400a04d8800b829ef0042
:10436800ba29ef00c02222003000070099e9a8000e
:104378000080fa00000006000000fa0099e9a90090
:104388009829ef009a29ef009c29ef0000102000df
:10439800f04c8800a229ef00a429ef00a829ef001b
:1043a800aa29ef000080eb00604d88000080eb0038
:1043b800704d8800b029ef00b429ef00b829ef004c
:1043c800ba29ef000080fa00000006000000fa0099
:1043d80099e9a8000080fa00000006000000fa0031
:1043e80099e9a9000080fa00000006000200fa001e
:1043f800000f78009e007800614d88000080fa0068
:10440800000006000200fa00000f78009e00780005
:10441800a14d88000080fa00000006000000fa00a4
:10442800a4c9a8000080fa00000006000200fa00f3
:10443800000f78001e0078000000e0000200320043
:104448009e007800218188000080fa0000000600a4
:104458000000fa000080fa00000006000000fa00e0
:1044680020408000700060000000e000060032007c
:10447800208180000000e0000200320020818000de
:10448800000001000488a9000080fa00000006006e
:104498000000fa0010002300307c8800600920002a
:1044a800407c880010042000507c880010102000f8
:1044b800707c880060092000807c8800100420003f
:1044c800907c8800b82fef00ba2fef00be2fef00c6
:1044d800002def00a42fef00a62fef00aa2fef006a
:1044e800ae2fef00b02fef00b22fef0072002000c8
:1044f80080072000a109200053f820008049780097
:1045080081497800824978000001eb0060042000ae
:104518007105200043f8200080497800814978001f
:10452800824978000080fa00000006000000fa00c6
:10453800707c8000ee800a00000000000080fb0014
:1045480000f0a7000000ea000000ea004f00de00cb
:0c455800004078000080fa00000006001f
:020000040000fa
:104564001410000006000000800000001e1000006f
:1045740002000000800000009a10000020000000eb
:1045840080000000201000000200000082000000f3
:10459400ffff00000c100000080000008000000075
:1045a400001000000c000000800000002210000039
:1045b400020000008000000024100000020000003f
:1045c40080000000261000000200000080000000af
:1045d4002810000002000000800000002c100000e1
:1045e4006e000000800000002a100000020000009d
:1045f40082000000828800001a10000004000000fd
:0846040080000000000000002e
:020000040000fa
:10460c000000fe00881d020000000000821f7800e0
:10461c00728080000000110002002000810019004f
:10462c004f017800000006000000fe00801f78009b
:10463c00811f7800821f780060038000801f780043
:10464c00881d0200000000004f017800020150009c
:10465c000201e900728088004f017800cf007800d9
:10466c004f007800000006000000fa00c3e8a80024
:10467c0000000000000000000080fa0000000600ae
:10468c000000fa0081ff0700a3fd0700f9f3070003
:10469c00c4fc070080f80700bffe07005ffe0700a0
:1046ac001cff0700fefd0700f9fa0700b6f907002a
:1046bc00edff07002efd07000080fa000000060049
:1046cc000200fa00000f78009e007800018188003b
:1046dc000000fe000080fa00000006000000fa0056
:1046ec00a009210080077800200b21000001880020
:0846fc000080fa000000060036
:020000040000fa
:10470400f03fb1000180b10006003500ee0309005e
:1047140000000000403fb1000180b100fbff3d00fc
:104724001000b000203fb0000200350000800900f6
:08473400000000000000060077
:00000001FF
