:020000040000fa
:080000000002040000000000f2
:020000040000fa
:040008004a060000a4
:020000040000fa
:04000c00a00500004b
:020000040000fa
:04001000c005000027
:020000040000fa
:040014008a06000058
:020000040000fa
:040018006a06000074
:020000040000fa
:04001c00ac0600002e
:020000040000fa
:04002000e0050000f7
:020000040000fa
:04002400ac06000026
:020000040000fa
:04002800ac06000022
:020000040000fa
:04002c00ac0600001e
:020000040000fa
:04003000ac0600001a
:020000040000fa
:04003400ac06000016
:020000040000fa
:04003800ac06000012
:020000040000fa
:04003c00ac0600000e
:020000040000fa
:04004000ac0600000a
:020000040000fa
:04004400ac06000006
:020000040000fa
:04004800ac06000002
:020000040000fa
:04004c00ac060000fe
:020000040000fa
:04005000ac060000fa
:020000040000fa
:04005400ac060000f6
:020000040000fa
:04005800ac060000f2
:020000040000fa
:04005c00ac060000ee
:020000040000fa
:04006000ac060000ea
:020000040000fa
:04006400ac060000e6
:020000040000fa
:04006800ac060000e2
:020000040000fa
:04006c00ac060000de
:020000040000fa
:04007000ac060000da
:020000040000fa
:04007400ac060000d6
:020000040000fa
:04007800ac060000d2
:020000040000fa
:04007c00ac060000ce
:020000040000fa
:04008000ac060000ca
:020000040000fa
:04008400ac060000c6
:020000040000fa
:04008800ac060000c2
:020000040000fa
:04008c00ac060000be
:020000040000fa
:04009000ac060000ba
:020000040000fa
:04009400ac060000b6
:020000040000fa
:04009800ac060000b2
:020000040000fa
:04009c00ac060000ae
:020000040000fa
:0400a000ac060000aa
:020000040000fa
:0400a400ac060000a6
:020000040000fa
:0400a800ac060000a2
:020000040000fa
:0400ac00ac0600009e
:020000040000fa
:0400b000ac0600009a
:020000040000fa
:0400b400ac06000096
:020000040000fa
:0400b800ac06000092
:020000040000fa
:0400bc00ac0600008e
:020000040000fa
:0400c000ac0600008a
:020000040000fa
:0400c400ac06000086
:020000040000fa
:0400c800ac06000082
:020000040000fa
:0400cc00ac0600007e
:020000040000fa
:0400d000ac0600007a
:020000040000fa
:0400d400ac06000076
:020000040000fa
:0400d800ac06000072
:020000040000fa
:0400dc007a050000a1
:020000040000fa
:0400e000ac0600006a
:020000040000fa
:0400e400ac06000066
:020000040000fa
:0400e800ac06000062
:020000040000fa
:0400ec00ac0600005e
:020000040000fa
:0400f000ac0600005a
:020000040000fa
:0400f400ac06000056
:020000040000fa
:0400f800ac06000052
:020000040000fa
:0400fc00ac0600004e
:020000040000fa
:04010000ac06000049
:020000040000fa
:04010400ac06000045
:020000040000fa
:04010800ac06000041
:020000040000fa
:04010c00ac0600003d
:020000040000fa
:04011000ac06000039
:020000040000fa
:04011400ac06000035
:020000040000fa
:04011800ac06000031
:020000040000fa
:04011c00ac0600002d
:020000040000fa
:04012000ac06000029
:020000040000fa
:04012400ac06000025
:020000040000fa
:04012800ac06000021
:020000040000fa
:04012c00ac0600001d
:020000040000fa
:04013000ac06000019
:020000040000fa
:04013400ac06000015
:020000040000fa
:04013800ac06000011
:020000040000fa
:04013c00ac0600000d
:020000040000fa
:04014000ac06000009
:020000040000fa
:04014400ac06000005
:020000040000fa
:04014800ac06000001
:020000040000fa
:04014c00ac060000fd
:020000040000fa
:04015000ac060000f9
:020000040000fa
:04015400ac060000f5
:020000040000fa
:04015800ac060000f1
:020000040000fa
:04015c00ac060000ed
:020000040000fa
:04016000ac060000e9
:020000040000fa
:04016400ac060000e5
:020000040000fa
:04016800ac060000e1
:020000040000fa
:04016c00ac060000dd
:020000040000fa
:04017000ac060000d9
:020000040000fa
:04017400ac060000d5
:020000040000fa
:04017800ac060000d1
:020000040000fa
:04017c00ac060000cd
:020000040000fa
:04018000ac060000c9
:020000040000fa
:04018400ac060000c5
:020000040000fa
:04018800ac060000c1
:020000040000fa
:04018c00ac060000bd
:020000040000fa
:04019000ac060000b9
:020000040000fa
:04019400ac060000b5
:020000040000fa
:04019800ac060000b1
:020000040000fa
:04019c00ac060000ad
:020000040000fa
:0401a000ac060000a9
:020000040000fa
:0401a400ac060000a5
:020000040000fa
:0401a800ac060000a1
:020000040000fa
:0401ac00ac0600009d
:020000040000fa
:0401b000ac06000099
:020000040000fa
:0401b400ac06000095
:020000040000fa
:0401b800ac06000091
:020000040000fa
:0401bc00ac0600008d
:020000040000fa
:0401c000ac06000089
:020000040000fa
:0401c400ac06000085
:020000040000fa
:0401c800ac06000081
:020000040000fa
:0401cc00ac0600007d
:020000040000fa
:0401d000ac06000079
:020000040000fa
:0401d400ac06000075
:020000040000fa
:0401d800ac06000071
:020000040000fa
:0401dc00ac0600006d
:020000040000fa
:0401e000ac06000069
:020000040000fa
:0401e400ac06000065
:020000040000fa
:0401e800ac06000061
:020000040000fa
:0401ec00ac0600005d
:020000040000fa
:0401f000ac06000059
:020000040000fa
:0401f400ac06000055
:020000040000fa
:0401f800ac06000051
:020000040000fa
:0401fc00ac0600004d
:020000040000fa
:04020000ac06000048
:020000040000fa
:04020400ac06000044
:020000040000fa
:04020800ac06000040
:020000040000fa
:04020c00ac0600003c
:020000040000fa
:04021000ac06000038
:020000040000fa
:04021400ac06000034
:020000040000fa
:04021800ac06000030
:020000040000fa
:04021c00ac0600002c
:020000040000fa
:04022000ac06000028
:020000040000fa
:04022400ac06000024
:020000040000fa
:04022800ac06000020
:020000040000fa
:04022c005a0500006f
:020000040000fa
:04023000ba0400000c
:020000040000fa
:04023400da040000e8
:020000040000fa
:04023800ac06000010
:020000040000fa
:04023c00ac0600000c
:020000040000fa
:04024000ac06000008
:020000040000fa
:04024400ac06000004
:020000040000fa
:04024800ac06000000
:020000040000fa
:04024c00ac060000fc
:020000040000fa
:04025000fa040000ac
:020000040000fa
:040254001a05000087
:020000040000fa
:040258003a05000063
:020000040000fa
:04025c00ac060000ec
:020000040000fa
:04026000ac060000e8
:020000040000fa
:04026400ac060000e4
:020000040000fa
:04026800ac060000e0
:020000040000fa
:04026c00ac060000dc
:020000040000fa
:04027000ac060000d8
:020000040000fa
:04027400ac060000d4
:020000040000fa
:04027800ac060000d0
:020000040000fa
:04027c00ac060000cc
:020000040000fa
:04028000ac060000c8
:020000040000fa
:04028400ac060000c4
:020000040000fa
:04028800ac060000c0
:020000040000fa
:04028c00ac060000bc
:020000040000fa
:04029000ac060000b8
:020000040000fa
:04029400ac060000b4
:020000040000fa
:04029800ac060000b0
:020000040000fa
:04029c00ac060000ac
:020000040000fa
:0402a000ac060000a8
:020000040000fa
:0402a400ac060000a4
:020000040000fa
:0402a800ac060000a0
:020000040000fa
:0402ac00ac0600009c
:020000040000fa
:0402b000ac06000098
:020000040000fa
:0402b400ac06000094
:020000040000fa
:0402b800ac06000090
:020000040000fa
:0402bc00ac0600008c
:020000040000fa
:0402c000ac06000088
:020000040000fa
:0402c400ac06000084
:020000040000fa
:0402c800ac06000080
:020000040000fa
:0402cc00ac0600007c
:020000040000fa
:0402d000ac06000078
:020000040000fa
:0402d400ac06000074
:020000040000fa
:0402d800ac06000070
:020000040000fa
:0402dc00ac0600006c
:020000040000fa
:0402e000ac06000068
:020000040000fa
:0402e400ac06000064
:020000040000fa
:0402e800ac06000060
:020000040000fa
:0402ec00ac0600005c
:020000040000fa
:0402f000ac06000058
:020000040000fa
:0402f400ac06000054
:020000040000fa
:0402f800ac06000050
:020000040000fa
:0402fc00ac0600004c
:020000040000fa
:04030000ac06000047
:020000040000fa
:04030400ac06000043
:020000040000fa
:04030800ac0600003f
:020000040000fa
:04030c00ac0600003b
:020000040000fa
:04031000ac06000037
:020000040000fa
:04031400ac06000033
:020000040000fa
:04031800ac0600002f
:020000040000fa
:04031c00ac0600002b
:020000040000fa
:04032000ac06000027
:020000040000fa
:10040000cf0521000eff27000e018800000020000c
:100410000000e000020032000001200020028800fd
:10042000140007006b0207000000e00003003a0020
:10043000e09d2400010020000200370000002000a1
:1004400001002000810f70004220ae000f00070065
:10045000000020000000e0004220ae00000002008a
:100460000000000030390200000000000040da0007
:100470000000fe00801220000000e00002003200b8
:10048000002020009001880000000600a1028800e2
:10049000800478000000eb001f003700e284440075
:1004a00054a0b4009905ba00e284440054a0b400fa
:1004b0009906ba00e284440054a0b4000006eb00a0
:1004c000476fde00fd07b200ae018800636ce100fb
:1004d00003003a000ad801000000eb000e003700cc
:1004e000606ce10008003a00004deb000a05e800ee
:1004f000020039003420ec000af0a0008b05e9006e
:10050000f9ff3e00040037006168e100010032009d
:100510000086eb000b00070019c7ba001905ba00e6
:100520000e04e00003003a000a00e000dbff3a009e
:1005300000000600fe07b200ae0288008a047800c0
:10054000f5ff37000cd0a300e20f4d001c003b006c
:1005500089027800354dba000a05e800020039002a
:100560003420ec000af0a0008b05e9000f003200f7
:10057000254dba000a05e800020039003420ec00dd
:100580000af0a0008b05e900080032000c00e00032
:100590000600320015cdba000a05e8000200390055
:1005a0003420ec000af0a0008b05e9008984e80003
:1005b00054a0b4000b00e000e2ff3a000000060087
:1005c0009902ba00055d78008b05e900f7ff32005b
:1005d000c82ade00055d78008b05e900f3ff3200d4
:1005e0000c00e000f1ff320019ddba00eeff370029
:1005f0006100e10001003200100005005400f80025
:1006000050102000a002880000f927001000ba0056
:100610005400f9000700260000f0a6008703d1006f
:100620000703780001c4fe000003eb000120200056
:1006300091018800615b2900111303008703e90021
:10064000fdff3a0000f0a7000000050000f0a00048
:1006500080c4fe0086037800f3ff37000408200002
:10066000010037000002eb006100e10001003200f0
:10067000100005003200f8003400f8008102780014
:10068000930188003200be000100e0000c0032003f
:100690000470a70000f0a00032037800c733de002a
:1006a000848343004220af008703e800a70188004d
:1006b000f607b2007f30e100040032002000200085
:1006c0003400f9003200f900000006008100e90062
:1006d0000500e00003003a00018009003210030029
:1006e000e8ff37000180090032900300d561ae00b9
:1006f000e4ff370030002000f1ff370050052000f4
:10070000b00e8800a00a2000b00e8800d3e1a80037
:100710000000060050052000b00e8800a00a20004e
:10072000b00e8800d3e1a90000000600c440040018
:1007300000000000ca40040000000000e240040085
:1007400000000000fa400400000000001241040014
:10075000000000002a41040000000000683e040080
:1007600000000000a63e040000000000d03e04008f
:1007700000000000c83e040000000000e23e04004b
:1007800000000000ea3e040000000000023f0400f8
:10079000000000000a3f040000000000223f0400a7
:1007a000000000002a3f040000000000323f040067
:1007b000000000004e3f040000000000643f040001
:1007c000000000006c3d040000000000743d0400c7
:1007d000000000007c3d040000000000843d040097
:1007e00000000000ac3f040000000000e43f0400f3
:1007f000000000008c3d040000000000a43d040047
:1008000000000000bc3d040000000000d43d0400d6
:100810000000000056400400000000001c400400de
:1008200000000000ec3d0400000000002e3e04002b
:10083000000000009040040000000000d0400400d0
:1008400000000000e8400400000000000041040037
:1008500000000000184104000000000044480400ab
:10086000000000003041040000000000504104007e
:100870000000000066410400000000008441040004
:10088000000000009a41040000000000ae41040096
:1008900000000000ce41040000000000f041040010
:1008a00000000000f84104000000000000420400c5
:1008b0000000000026420400000000003e42040048
:1008c00000000000b042040000000000c642040026
:1008d00000000000e2420400000000004443040065
:1008e000000000005642040000000000b443040071
:1008f00000000000d443040000000000ea430400ac
:100900000000000008440400000000001e44040031
:1009100000000000324404000000000052440400c3
:100920000000000074440400000000007c44040047
:10093000000000008444040000000000aa440400f9
:1009400000000000c2440400000000003445040020
:10095000000000004a450400000000006645040055
:1009600000000000c845040000000000da44040054
:10097000000000003600f800809fbe00829fbe008d
:10098000849fbe00869fbe000000fa0000808000a9
:10099000000001001048a9000080fa004f03be00cb
:1009a0004f02be004f01be004f00be003600f900ee
:1009b000004006003600f800809fbe00829fbe0007
:1009c000849fbe00869fbe000000fa001080800059
:1009d000000001001068a9000080fa004f03be006b
:1009e0004f02be004f01be004f00be003600f900ae
:1009f000004006003600f800809fbe00829fbe00c7
:100a0000849fbe00869fbe000000fa002080800008
:100a1000000001001148a9000080fa004f03be0049
:100a20004f02be004f01be004f00be003600f9006d
:100a3000004006003600f800809fbe00829fbe0086
:100a4000849fbe00869fbe000000fa0030808000b8
:100a5000000001001168a9000080fa004f03be00e9
:100a60004f02be004f01be004f00be003600f9002d
:100a7000004006003600f800809fbe00829fbe0046
:100a8000849fbe00869fbe000000fa004080800068
:100a9000000001001188a9000080fa004f03be0089
:100aa0004f02be004f01be004f00be003600f900ed
:100ab000004006003600f800809fbe00829fbe0006
:100ac000849fbe00869fbe000000fa005080800018
:100ad000000001001028a9000080fa004f03be00aa
:100ae0004f02be004f01be004f00be003600f900ad
:100af000004006003600f800809fbe00829fbe00c6
:100b0000849fbe00869fbe000000fa009080800097
:100b10000000e00002003200908080000000010030
:100b200005a8a9000080fa004f03be004f02be00d6
:100b30004f01be004f00be003600f9000040060025
:100b40003600f800809fbe00829fbe00849fbe00da
:100b5000869fbe000000fa00c068a90020002000a7
:100b6000692207000080fa004f03be004f02be005a
:100b70004f01be004f00be003600f90000400600e5
:100b80003600f800809fbe00829fbe00849fbe009a
:100b9000869fbe000000fa00c608a9007000200071
:100ba000592207000080fa004f03be004f02be002a
:100bb0004f01be004f00be003600f90000400600a5
:100bc0003600f800809fbe00829fbe00849fbe005a
:100bd000869fbe000000fa00204680007000600082
:100be0000000e00003003200c488a900a00020003b
:100bf000452207002146800000042000008060009c
:100c00000000e00003003200c4c8a900e00020009a
:100c10003d22070021468000000220000080600085
:100c20000000e00003003200c4a8a90090002000ea
:100c3000352207002146800000102000008060005f
:100c40000000e00003003200c508a900c000200039
:100c50002d22070021468000002020000080600037
:100c60000000e00003003200c528a900d0002000e9
:100c70002522070020468000610060000000e0009f
:100c800003003200c408a900b00020001e220700a3
:100c9000ffff37003600f800809fbe00829fbe0035
:100ca000849fbe00869fbe000000fa00c028a900f5
:100cb0000000eb00142207000080fa004f03be0082
:100cc0004f02be004f01be004f00be003600f900cb
:100cd000004006003600f800809fbe00829fbe00e4
:100ce000849fbe00869fbe000000fa00c088a90055
:100cf00030002000042207000080fa004f03be00ed
:100d00004f02be004f01be004f00be003600f9008a
:100d1000004006003600f800809fbe00829fbe00a3
:100d2000849fbe00869fbe000000fa00fd210700e0
:100d3000c048a90010002000f32107000080fa003d
:100d40004f03be004f02be004f01be004f00be0069
:100d50003600f900004006000040da000000fe0006
:100d60000800fa0010079800210798003207980041
:100d70000000eb00000f780000000000871d070056
:100d80000004a2000004e000fcff3a000a00370063
:100d900000000000711d07000004a2000004e00034
:100da000fcff3a002e0090001e004000104078002a
:100db0001e0fe800541d07003e0090009e007800c2
:100dc000808f5000f2ff39001e0078000080fa008a
:100dd00000000600000005006022b80006022000a6
:100de0000000d0008180d2000482d2008582d2002f
:100df0000000a0000202520083825a00030031006a
:100e00000202420083824a000000a1000603e900ba
:100e1000f3ff3a00000006000000fa006881570066
:100e2000cfb89700e90107000080fa000000060033
:100e3000060007005f000700120107003a010700e3
:100e40009300070039020700e4013700ec874700f0
:100e5000889fbe008a9fbe008c9fbe008e1f7800b8
:100e6000000678000104780018079000280590001b
:100e700098067800cdb79f00b80590003202be00fa
:100e80002203be000400be000601be004f18de00b3
:100e90006011b8008000eb00d0b79f00e1b79f0061
:100ea000f2b79f0083bf9f00800478000900e00034
:100eb000060032006000b8006011b8000402500063
:100ec0008582580006035900878359000e00e00010
:100ed000020035000d10a100cdb79f000900e00011
:100ee00005003a004fb097000028a30002003a0026
:100ef0000038a300020032008a00e9000100370038
:100f00008a007800f8815700a200200008007800cd
:100f1000890007000900e00003003a00cfb0970005
:100f20000128a300080032000000e900008145000c
:100f3000b1c2b3000900e00001003200d1c2b30029
:100f400001497800060037000138a3000400320090
:100f50000000e9008080450002c2b30082487800aa
:100f6000480190000201e900000151008080450025
:100f70004fb297008a0178000c0078003602070013
:100f80009c0090000188a3000400320098009000ab
:100f9000810f500001003d00010078004f077800ec
:100fa0004f06be004f05be004f04be00cf00b1008b
:100fb000000006000200fa00889fbe008a9fbe0063
:100fc0008005780001047800020078001801900084
:100fd0002805900098007800b1bf9f00b8049000e9
:100fe0000200e000020035000110a100b1bf9f0027
:100ff000ea815700820020008a0078003002be009b
:101000002003be00080078004b0007003fb997009e
:10101000f0006100040032000000e900808044001c
:1010200002c3b300824878003fb99700e80061002e
:10103000040032000000e9008080440002c2b300d6
:1010400082487800480190000201e9000001510047
:10105000808044003fba97008a0178000b00780036
:10106000fd0107009b0090000188a30004003200ee
:1010700098009000810f500001003d0001007800b1
:101080004f05be004f04be000080fa0000000600bd
:10109000ea874700889fbe008a9fbe008e1f7800a7
:1010a00000047800030078007287570084e226006d
:1010b00055c72600049fbe00c3962200030f780088
:1010c0006c875700004feb0011059000a1049000c1
:1010d000910578000200e00002003200020778006b
:1010e00001003700728757000000e00002003a005c
:1010f0000e007800550407000a00e00003003500e8
:101100008a0f5000010036000a0078000b027800b8
:1011100089017800000178008e00780008007800ce
:10112000cd0107004f0778004f05be004f04be00f9
:10113000af00b10000000600f4874700889fbe00a2
:101140008a9fbe008c9fbe008e1f78000605be00e1
:101150000404be0081bf9f0082b79f00f3b79f00c9
:10116000b0009000e1b79f001301780092b79f0094
:1011700090069000400090000000e9000006780012
:101180000d00e00001003d001d002000efb19700c0
:10119000008041000048eb001e0020001f003700c7
:1011a0000c06e9000fb09700cf80de006109b9009e
:1011b000a0b79f00b1b79f00c2b79f00d3b79f00f1
:1011c0000203be000002be000800be000a01be000d
:1011d0007005070000077800efb097000c80400012
:1011e00003c3b300034847008d06e9000fb897001a
:1011f0000000e90080bf9f002fb29700bfb29700a8
:101200004fb39700dfb397000800be000a01be008d
:10121000590507000205be000004be000c00e000f6
:101220000d003400e00f5400e08f5c00e00f5d0023
:10123000e08f5d00daff3a000d00e000d8ff3c00cf
:101240008fb897000100e000030034001fb1970041
:101250000218a300d2ff3a000e00e00002003a009c
:10126000ffb197001340a1000c0078004f077800f1
:101270004f06be004f05be004f04be004f01b10037
:10128000000006000200fa00889fbe008a9fbe0090
:101290000005780001047800020078001801900031
:1012a000a804900098007800b1bf9f00b805900096
:1012b0000200e000020035000110a100b1bf9f0054
:1012c000ea815700a2002000890078003002be00a9
:1012d0002003be000800780097ff07004801900037
:1012e0000201e90000015100808045003fba9700eb
:1012f000890178000a007800570107009a009000e1
:101300000188a3000400320098009000810f500073
:1013100001003d00010078004f05be004f04be00f3
:101320000080fa0000000600fa874700889fbe0090
:101330008a9fbe008c9fbe008e1f780080047800bc
:1013400001047800820578001801900028059000bb
:1013500018077800b80090000200e0000200350095
:101360000e10a1000100370012002000700067007d
:10137000e0b79f00090032003b02be002b03be0015
:10138000e00f5200e08f5a00e00f5b00e08f5b003f
:10139000020032008a86e900010037008a067800e0
:1013a000e8026700f5b79f00010032008d06e900f2
:1013b0003b02be002b03be00e4af9f00f5af9f00d1
:1013c00086b79f0097b79f00480690000c06e9007b
:1013d0000c8040000048eb00efb297007fb297000e
:1013e0008903780081047800d8af9f000204780058
:1013f0008bbf9f008a057800034578002b003700db
:101400000c06e9006fab97006f006300e90f500016
:1014100002003c000003b000010037007005b0007e
:101420000a03fb001604b100f90f53000c003e0044
:10143000000378000650a0001606b100f90f530013
:1014400007003e00b4b79f00a5b79f00c7b79f0035
:101450009d030700cfb39700afb297003fb297004c
:101460000c834400004b78000804e9008d06e90075
:101470006fa89700ffa897000fb197009fb1970042
:10148000460020008301d1000281d3008180d30077
:101490000080d3000603e900faff3a00e0af9f00a6
:1014a000f1af9f0082b79f0093b79f00e10f5600f6
:1014b0000f0034006fa89700ffa897000fb19700a6
:1014c0009fb19700e00f5000e08f5800e00f5900e7
:1014d000e08f5900caff3a000800e000c8ff3c0056
:1014e0000d00e000020034000e18a300c4ff3a0013
:1014f00089007800f4b79f00870478005fac9700fc
:101500008a4178000b0578008fbd97000500e00048
:10151000120032003b02be002b03be00e4af9f006e
:10152000f5af9f0086b79f0097b79f00e00f52006e
:10153000e08f5a00e00f5b00e08f5b000700320095
:101540000c06e9000c804000034878000c06e90016
:101550000c80400002c3b30002487800ffb297003d
:101560000500e000040032000c06e9000c80400099
:1015700002c2b30002487800480190000201e9006d
:101580000c0151008c8040000e0278008a01780026
:1015900009007800b0000700990090000188a300be
:1015a0000400320098009000810f500001003d00bf
:1015b000010078004f0778004f06be004f05be00bf
:1015c0004f04be00af01b1000000060082017800a8
:1015d00001017800f1ff2700420337008408200052
:1015e000848f50001d0032000d003c0014082000c4
:1015f000848f50002700320002003c0004082000c5
:101600000400370024082000848f5000340032008a
:1016100044082000848f500043003a003600370011
:10162000040a2000848f50002700320004003c0090
:1016300004092000848f50003b003a002800370046
:10164000020c2000828f50002f003200020f200079
:10165000828f500034003a002b0037009380e9005d
:101660000200e00005003200810978001102fb0051
:10167000cfa2de00612bb900280037008109780075
:10168000114278000482fb008002eb006033b80056
:101690002200370013027800e40052000200e0004c
:1016a00005003200810978001102be004fabde0058
:1016b0008603780019003700810978001102be0006
:1016c0006033b800150037009380e9008109780085
:1016d00011027800cfa2de00612bb9000f003700a5
:1016e00093027800e8805200810978003102be0040
:1016f0002103be00090037009380e9000200e000ea
:1017000002003200f1ff37009380e9008109780080
:10171000110278008002eb006033b8000498be002c
:101720000690be00100005000000050044082000df
:10173000848f50002500320008003c00140820006f
:10174000848f50001400320024082000848f500041
:1017500024003200040820000c0037000409200097
:10176000848f50001f00320004003c0084082000d9
:10177000848f500024003a000e003700040a200035
:10178000848f500011003200040c2000848f500020
:101790001d003a000d0037009380e90081097800b0
:1017a0009100780001087800cf91de008288be00a9
:1017b000140037009380e9008109780091007800d7
:1017c00001087800824878000e0037009380e90015
:1017d000810978009100780001087800820878007b
:1017e000080037009380e9008109780091007800b3
:1017f000010878006112b900612bb9008498be001d
:101800008690be001000050000000500889fbe0005
:10181000000478004800900082047800808f540013
:10182000010036008004780009017800580090001b
:101830001b02070058009000090040005004980067
:10184000c800900089845000490498000048eb00cb
:101850004f04be0000000600f2874700889fbe00cc
:101860008a9fbe008c9fbe008e1f78008004780087
:1018700001057800020478008305780061076200a2
:1018800002003a008b0f540008003900080178006c
:101890008a00780009007800dcff07008b0f5400f5
:1018a00002003900880578001e00370008865500c0
:1018b0000c017800f00f56000100360002012000f4
:1018c000010220007e805700fc0107008c06780092
:1018d0000500370002012000fe8057000900780053
:1018e000caff0700f0865600ef8f5600f9ff3e0052
:1018f0004461de0000ff2f008091b9000c0141001f
:10190000fe80570009007800c0ff07000e00e000cd
:1019100004003a00080178008a0078000900780085
:10192000baff07000b0078004f0778004f06be0093
:101930004f05be004f04be002f01b100000006009d
:10194000000005000000050000000500000178000f
:101950000040eb008080fb008180400043042100b8
:1019600081814100134278000404e00004003a0041
:101970005004210081004000114078000000060062
:1019800092017800934f520005003a005004210064
:1019900081004000114078000309e8000100370091
:1019a0000040e800ea4f5000eaff36000000060061
:1019b000f6874700889fbe008a9fbe008c9fbe00ae
:1019c0008e1f7800000578000104780083057800f8
:1019d000040678000000eb00c0b79f008080eb0099
:1019e000d1b79f00e0b79f00f2b79f00000820002a
:1019f00080bf9f0098007800010078008004eb0011
:101a0000010037008904e800304178000204e0005a
:101a10000300320053c2b300834f5100f9ff3a0074
:101a20000900e00004003200090178000a00780093
:101a300076ff0700188c44001807780050c2b300e6
:101a40009e4f10003f013a000e07e8000e0c780090
:101a500010003700cfb097000100a0000b00370046
:101a6000cfb097000110a00008003700cfb097005a
:101a70000120a00005003700cfb097000130a00082
:101a800002003700cfb097000140a000c1b79f000f
:101a9000000ce8001800780090407800b2c2b30053
:101aa00082cf5000f1ff320007003c0002c2b300b9
:101ab00082cf5000f0ff320032c2b30082cf50001c
:101ac00007003a00efff3700d2c2b30082cf5000c8
:101ad000e0ff320002c3b30082cf5000e0ff3200cb
:101ae000a2c2b30082cf50000d003a00000ce80003
:101af0001c80e900000e780010007800e0b79f001d
:101b00000000e0000f003d00cfb097000100a200f0
:101b1000c1b79f000000ea00e0b79f00090037004e
:101b200039010700e0b79f0001003700000ce80012
:101b3000180078009000fb000103b100e98f50000d
:101b4000faff36004fb097000008a30002003200f1
:101b50000010a100c0b79f0018007800e1c2b300d8
:101b600090cf100016003a008000eb00d1b79f0024
:101b70000000e800000c7800a1c2b30090cf100074
:101b800006003a00000ce8001c80e900000e780016
:101b900010007800d0b79f00090037001a01070035
:101ba000d0b79f0001003700000ce8001800780053
:101bb0009000fb000103b100e98f5000faff3600ee
:101bc0000800780061ff0700804678001800780060
:101bd0001000fb00b501070091062000810f5000a6
:101be0003800320012003c0041062000810f5000f6
:101bf000340032000a003c0011062000810f500022
:101c00002000320031062000810f5000a000320079
:101c100051022000810f5000bc003a00b400370090
:101c200071062000810f5000b8003c00880037008a
:101c300001072000810f50005c00320007003c00cb
:101c4000e1062000810f50007a003200f1062000ea
:101c5000810f5000ad003a003900370051072000d5
:101c6000810f50002700320081072000810f5000b3
:101c70004200320031072000810f5000a3003a00db
:101c80008f0037008d80fb000c01780000fe2f00d4
:101c90000f004000b80107000000e000a80032007b
:101ca00018007800000ce8009041780002fe2f0038
:101cb0000f014100f88057000a00780021ff07005b
:101cc0000e0037008d80fb008c0178001200200090
:101cd00000fe2f000f00400040fe07000000e00063
:101ce00097003200180ce80002fe2f000f0141009f
:101cf000f88057000a00780054fc070080844400f4
:101d0000900037008d80fb008c0178000001eb0013
:101d100000fe2f000f00400030fe07000000e00032
:101d200087003200180ce80002fe2f000f0141006e
:101d3000f88057000a00780052fd0700efff3700d7
:101d40008d80fb008c0178000001eb0000fe2f006d
:101d50000f00400021fe07000000e0007800320084
:101d6000180ce80002fe2f000f014100f880570018
:101d70000a0078008ffc0700e0ff37008d80fb0031
:101d80008c0178000001eb0000fe2f000f004000e6
:101d900012fe07000000e000690032001800780021
:101da000000ce800904178001c0037008c0178009e
:101db0000001eb00010f200000fe2f000f0040008b
:101dc00006fe07000000e0005d003200180ce8008d
:101dd0000fb097009fb097002fb19700bfb1970049
:101de000e00f5000e08f5800e00f5900e08f5900dd
:101df00009003a00cfb597006fb49700c0032100e7
:101e0000120107000b0278008801780000017800b9
:101e1000c10321004700370083c7b30002fe2f0033
:101e20000f014100f88057000a0078003efd0700ce
:101e3000b2ff37000b8144008d80fb008c017800dd
:101e400000fe2f000f00400038fe07003c00370066
:101e50008d80fb000c01780000fe2f000f00400079
:101e6000450107000000e00035003200180078004e
:101e7000000ce8009041780002fe2f000f014100a5
:101e8000f88057000a007800aefe07009bff37007d
:101e900000c8b30080cf560029003a00180ce800b3
:101ea0001c80e900000e780010407800e0df9f0001
:101eb00013002000e2fd2f000f0141000800370051
:101ec00000c8b30080cf56001d003a00180ce8008f
:101ed0001c80e900000e78008001eb001001780002
:101ee000f88057000a00780069fc070083ff37007c
:101ef00000c8b30080cf560011003a00180ce8006b
:101f00004fb29700efb19700080037000e0c780031
:101f10000000eb00c0b79f00e0b79f000080eb001f
:101f2000d0b79f000002eb0084017800120020006f
:101f3000210421000a00780047fe07006fff3700e8
:101f4000180ce800090078004f0778004f06be0023
:101f50004f05be004f04be006f01b1000000060037
:101f60008200fa00889fbe008a1f78000005780072
:101f700082047800c13f9f000004eb00100037008e
:101f80000902780088017800a2f72f000f014100b4
:101f900081f72f008f8040000a00780084fe070040
:101fa00008004000880f500004003d00b0042000ed
:101fb000d08288000084eb00040037000004780021
:101fc0004f3897001004e000edff3a000800780059
:101fd0004f0578004f04be000080fa0000000600a4
:101fe000800078001000200002022000828f500044
:101ff00004003200e9805000e48f500001003600f8
:102000000000eb0000000600889fbe008a1f7800d9
:10201000000578000a047800984478000805e80074
:102020000900fb00eeff07000000e000f9ff3a00a6
:10203000b0c2b30080cf540005003200d0c2b3005c
:102040008000eb0080cf540005003a00020037000a
:102050008000eb0001003700110020000804e800b8
:102060000000eb0003003700ea00b9000200500056
:102070000003b0003801fb0003fd2f008281410006
:10208000e98f5100f8ff36000100e00001003a003e
:102090000000ea004f0578004f04be000000060073
:1020a0008001780002003700b15978000201e90090
:1020b0000200e000fcff3a0000000600889fbe001e
:1020c0008a9fbe00800478000200e0005b003200be
:1020d00001407800814c780082814400f1f99f0032
:1020e000e20f51005500360091449800a144980039
:1020f000e1f99f00d1f99f00e60f51004f00360033
:10210000b1449800c1f99f00e80f51004b00360020
:102110000905ea00630565000a8444000a055100c8
:10212000c1ff2f00010565000080fb008000eb006f
:102130001210200013102000f0000700008cbe00d9
:102140000a01440060b99f0071b99f00e80f550073
:102150003a003600200498003104980040049800aa
:102160005104980020b99f0031b99f0040b99f00e9
:1021700051b99f00f80f55003000360060049800f8
:1021800071049800000c9800110c9800200c980025
:10219000310c9800400c9800510c980020b19f0021
:1021a00031b19f0040b19f0051b19f0060b19f00cd
:1021b00071b19f0000b99f0011b99f0064016400d4
:1021c0007801410002044400020555006011b80086
:1021d0000203be000002be000403be006022b8007d
:1021e000000072008180720002017300838173001d
:1021f00010003700009cbe000294be00400498000e
:10220000510498006204980073049800000c980030
:10221000110c9800220c9800330c9800400c980088
:10222000510c9800620c9800730c98000a02b100df
:102230000802b000ff0f5500eeff3e0009007800d5
:102240004f05be004f04be0000000600800078006d
:10225000040037003104e00002003a0000005100a1
:1022600000000600010178000108a300f9ff3a0010
:102270008101780031017800f4ef2f000202420062
:102280000281ea00020162000408280004016100e2
:10229000f7ff320083007800010178003104e0008c
:1022a000fdff3a000000510000000600f1fb2f0086
:1022b00080804000f98f500001003e000050a000d7
:1022c00000000600f9ff3700f1f92f008080400080
:1022d000f98f500001003e00f005b200000006003a
:1022e000f9ff3700f28747008e1f7800020278005e
:1022f000030178000000e0000200320000077800cf
:1023000001003700728757008002eb000100e000f7
:10231000010032008102e9007080570006000900c8
:102320000018eb000080eb0080bf9f00231020000e
:1023300093bf9f00aebf9f00b1bf9f00c5bf9f006e
:102340000100e00003003d00b1042000d1828800bc
:1023500006003700004feb00eebf9f00debf9f007e
:102360008400780070805700220007004f07780033
:102370002f01b10000000600881f780000047800db
:1023800000082000808f5000170035001008200042
:10239000808f50000b00340030082000808f5000e8
:1023a00011003a009200780068805000000978001f
:1023b0003002be002003be00049cbe000694be0096
:1023c000070037009202780064805200000978000c
:1023d0001000be0015000700009cbe000294be0065
:1023e00010002000010037000000eb004f047800cf
:1023f000000006000200fa00881f78000004780040
:10240000e2bf9f006481570008007800d4fe0700f7
:10241000980090000148a300010032000080eb000a
:102420004f0478000080fa00000006008103780065
:102430001d0007000001be006000b8000478a30082
:1024400013003a006220e10015003e000d00390043
:102450008301d1000281d3008180d3008301d100a8
:102460000281d3008180d3008301d1000281d30097
:102470008180d3000538b000c42add00f300b2002b
:102480008381720007f0a70003f0a000000006009f
:1024900083ff2700020020006110b900f9ff370018
:1024a00003ff2700f7ff3700c70ade00f107b2007d
:1024b000f50fb20008003200e1cf42000200320006
:1024c0000170a00024000500810f7000010032009f
:1024d0000408050044000500810f700002003a0066
:1024e000140005008502e9000000400081c048009a
:1024f000fcff3b000170a00024000500020ab900a7
:10250000001bb9000200b8008100420081004300b6
:1025100000000600889fbe008a9fbe003004420073
:10252000b0844a0030054b0090854b006000b1003c
:102530000898be000a90be000440e10005c8e10012
:1025400006d0e10007d8e100020031006800400039
:102550001008e8004f05be004f04be000000060052
:10256000889fbe008a9fbe003004be002005be00ca
:102570000418540005985c0006185d0007985d007b
:10258000110020000440e10005c8e10006d0e10090
:1025900007d8e100010039008000eb00108810002e
:1025a0004f05be004f04be00000006001200fa00f6
:1025b000889fbe008a9fbe008c9fbe00e0b79f0030
:1025c000f1b79f0082bf9f0093bf9f000605be002a
:1025d0000404be000000eb00d0b79f00c0b79f000e
:1025e000b0b79f00a0b79f0090b79f00000678008b
:1025f0005fb19700cfb09700820141003fb09700d4
:102600000200e00004003d00370007007e80570014
:10261000c0ff070003003700330007007e8057002b
:10262000cfff0700dfb697000d00e0000c0035007b
:102630006fb29700ffb297000fbb97009fbb970048
:1026400010002000010020006011b800000272009c
:102650008182720002037300838373001b000700f2
:102660000c06e80001042000810f5600e0ff3a004c
:102670000d00e00004003d000802be000a03be0099
:102680007e805700a3ff07005fa897000000e000ce
:1026900005003a001fb29700afb297003fb3970012
:1026a000cfb39700090007006fb09700ffb0970005
:1026b0000fb997009fb997004f06be004f05be00a7
:1026c0004f04be000080fa00000006000100070071
:1026d00000000600a4b79f00b5b79f00c6b79f00d3
:1026e000d7b79f00000006004f09de00828171000d
:1026f000b3b79f004f01de008180400082807000f0
:10270000a1b79f008fb097004f09de000000400086
:102710000200700090b79f007fa897004f01de0075
:10272000818040008280700081b79f000d0007000b
:102730004f3ade000000400004007000f0af9f0040
:10274000080007000402420085824a0006034b008d
:1027500087834b00dfff07000802be000a03be00ac
:10276000000006002fb29700bfb297004fb397004a
:10277000dfb3970000000600881f780018002000d3
:10278000881f780089ff07008f87e9004f047800d1
:1027900000000600801feb0084ff07008f87e90020
:1027a00000000600889fbe008a9fbe00e00f500018
:1027b000e08f5800e00f5900e08f59000c003d00f9
:1027c0006044b8006055b8000000540081805c008f
:1027d00002015d0083815d001800200015000700e4
:1027e00008003d00180007000004eb00050037005a
:1027f0000004eb000f00070002003d00120007007c
:1028000018002000dcff07000800e000060032008e
:102810006022b8006033b8000000520081805a0086
:1028200002015b0083815b004f05be004f04be00c8
:1028300000000600e00f5200e08f5a00e00f5b003e
:10284000e08f5b00000006006044b8006055b800ef
:102850000402540085825c0006035d0087835d00ee
:1028600000000600889fbe008a9fbe008c1f780073
:10287000e00f5000e08f5800e00f5900e08f590042
:102880000d003d006044b8006055b80000005400e1
:1028900081805c0002015d0083815d001c002000de
:1028a0000820e10009a8e1000ab0e1000bb8e1004e
:1028b0000d003d00080037000006eb00e00f52005d
:1028c000e08f5a00e00f5b00e08f5b0006003d00e8
:1028d0006044b8006055b8000402540085825c0072
:1028e00006035d0087835d00aaff07000c00e0007f
:1028f000060032006022b8006033b80000005200c9
:1029000081805a0002015b0083815b004f067800e2
:0c2910004f05be004f04be000000060092
:020000040000fa
:10291c00414100002c300000312c000025640000e7
:10292c002c250000642c0000256400002c250000e0
:10293c00642c0000256400002c250000642c000091
:10294c00256400002c250000642c00002575000077
:10295c000a000000414100002c300000322c000025
:10296c00256400002c250000642c00002564000068
:10297c002c250000642c0000256400002c25000090
:10298c00642c0000256400002c250000642c000041
:10299c00256400002c250000642c00002564000038
:1029ac002c250000642c0000256400002c25000060
:1029bc00642c0000256400002c250000642c000011
:1029cc00256400002c250000642c00002564000008
:1029dc002c250000642c0000256400002c25000030
:1029ec00642c0000256400002c250000642c0000e1
:1029fc00256400002c250000642c000025640000d8
:102a0c002c250000752c0000257500000a00000024
:102a1c00683e0000a63e0000d03e0000c83e00000c
:102a2c00e23e0000ea3e0000023f00000a3f0000c8
:102a3c00223f00002a3f0000323f00004e3f0000c2
:102a4c00643f00006c3d0000743d00007c3d0000c4
:102a5c00843d0000ac3f0000e43f00008c3d0000d2
:102a6c00a43d0000bc3d0000d43d000056400000d9
:102a7c001c400000ec3d00002e3e00009040000089
:102a8c00d0400000e8400000004100001841000068
:102a9c000000000000000000304100005041000028
:102aac0066410000844100009a410000ae410000e4
:102abc00ce410000f0410000f84100000000000091
:102acc000000000000420000264200003e420000d0
:102adc00b0420000c6420000e24200004443000045
:102aec005642000000000000000000000000000042
:102afc00000000000000000000000000b4430000d3
:102b0c00d4430000ea430000084400001e440000c7
:102b1c003244000052440000744400007c44000025
:102b2c00000000000000000084440000aa440000e3
:102b3c00c2440000344500004a45000066450000d0
:102b4c00c8450000da44000000000000000000004e
:102b5c000000000000000000000000000000000069
:020000040000fa
:042b6c00ffffff0068
:020000040000fa
:102b700000000000ca0000001f0000000002040066
:102b800000000000ce0600004406000064060000bd
:102b90000e070000ee060000160800008406000084
:102ba00016080000160800001608000016080000ad
:102bb000160800001608000016080000160800009d
:102bc000160800001608000016080000160800008d
:102bd000160800001608000016080000160800007d
:102be000160800001608000016080000160800006d
:102bf000160800001608000016080000160800005d
:102c0000160800001608000016080000160800004c
:102c1000160800001608000016080000160800003c
:102c2000160800001608000016080000160800002c
:102c3000160800001608000016080000160800001c
:102c4000160800001608000016080000160800000c
:102c500016080000160800003007000016080000e3
:102c600016080000160800001608000016080000ec
:102c700016080000160800001608000016080000dc
:102c800016080000160800001608000016080000cc
:102c900016080000160800001608000016080000bc
:102ca00016080000160800001608000016080000ac
:102cb000160800001608000016080000160800009c
:102cc000160800001608000016080000160800008c
:102cd000160800001608000016080000160800007c
:102ce000160800001608000016080000160800006c
:102cf000160800001608000016080000160800005c
:102d0000160800001608000016080000fa0400006b
:102d100016080000160800008a05000016080000ca
:102d2000160800001608000016080000160800002b
:102d3000160800001608000016080000160800001b
:102d4000160800001608000016080000c80500005c
:102d5000060600001608000016080000160800000d
:102d600016080000160800001608000016080000eb
:102d700016080000160800001608000016080000db
:102d800016080000160800001608000016080000cb
:102d900016080000160800001608000016080000bb
:102da0001608000016080000f6070000560700008d
:102db000760700001608000016080000160800003c
:102dc000160800001608000016080000960700000c
:102dd000b6070000d607000016080000160800001d
:102de000160800001608000016080000160800006b
:102df000160800001608000016080000160800005b
:102e0000160800001608000016080000160800004a
:102e1000160800001608000016080000160800003a
:102e2000160800001608000016080000160800002a
:102e3000160800001608000016080000160800001a
:102e4000160800001608000016080000160800000a
:102e500016080000160800001608000016080000fa
:102e600016080000160800001608000016080000ea
:102e700016080000160800001608000016080000da
:102e800016080000160800001608000016080000ca
:102e90001608000016080000160800000000fe00da
:102ea0000000fe0000020000000200001f00000001
:102eb000af0b21000eff24000e018800000000006f
:102ec000000020000000e0000200320000012000ad
:102ed0002002880014000700020307000000e00041
:102ee00003003a00202b22000100200002003700de
:102ef0000000200001002000810f7000010032005e
:102f00000f000700000020000000e0000200320077
:102f10000000020000000000740f0200000000002a
:102f20000040da000000fe00201120000000e00058
:102f300002003200002020009001880000000600fe
:102f4000a1028800800478000000eb001f00370019
:102f5000e284440054a0b4009905ba00e28444001d
:102f600054a0b4009906ba00e284440054a0b4000e
:102f70000006eb00476fde00fd07b200ae018800df
:102f8000636ce10003003a000ad801000000eb0086
:102f90000e003700606ce10008003a00004deb00c5
:102fa0000a05e800020039003420ec000af0a00015
:102fb0008b05e900f9ff3e00040037006168e1007d
:102fc000010032000086eb000b00070019c7ba00b1
:102fd0001905ba000e04e00003003a000a00e00000
:102fe000dbff3a0000000600fe07b200ae028800d8
:102ff0008a047800f5ff37000cd0a300e20f4d00e3
:103000001c003b0089027800354dba000a05e80033
:10301000020039003420ec000af0a0008b05e90022
:103020000f003200254dba000a05e8000200390001
:103030003420ec000af0a0008b05e9000800320003
:103040000c00e0000600320015cdba000a05e800c9
:10305000020039003420ec000af0a0008b05e900e2
:103060008984e80054a0b4000b00e000e2ff3a00bd
:10307000000006009902ba00055d78008b05e900a2
:10308000f7ff3200c82ade00055d78008b05e900f5
:10309000f3ff32000c00e000f1ff320019ddba004e
:1030a000eeff3700000000000000000000000000fc
:1030b0000000000000000000000000000000000010
:1030c0000000000000000000000000000000000000
:1030d00000000000000000000000000000000000f0
:1030e00000000000000000000000000000000000e0
:1034a000000000003600f800809fbe00829fbe0032
:1034b000849fbe00869fbe003200f8003400f800f2
:1034c00010002000a00188000020200000d0fe0095
:1034d0000200fa00a08080000000e000020032003c
:1034e000a080800000000100514080000000220008
:1034f000008060000000e0000a003200816080006f
:10350000010f7800b08080000000e000040032006d
:10351000b28080009e0078000000eb0002000100f5
:103520000ba8a900614080000040200000806000de
:103530000000e0000a00320051618000010f7800b5
:10354000b08080000000e00004003200b280800003
:103550009e00780010002000020001000d48a90024
:103560006140800000802000008060000000e000da
:103570000a00320061618000010f7800b080800095
:103580000000e00004003200b28080009e0078005d
:1035900020002000020001000d68a9000b48a900ce
:1035a0000080fa003400f9003200f9004f03be0039
:1035b0004f02be004f01be004f00be003600f900b2
:1035c000004006003600f800809fbe00829fbe00cb
:1035d000849fbe00869fbe003200f8003400f800d1
:1035e00010002000a00188000020200000d0fe0074
:1035f0000200fa0081608000010f7800b080800036
:103600000000e00004003200b28080009e007800dc
:103610000000eb00020001000ba8a9000080fa00e6
:103620003400f9003200f9004f03be004f02be0023
:103630004f01be004f00be003600f90000400600fa
:103640003600f800809fbe00829fbe00849fbe00af
:10365000869fbe003200f8003400f8001000200001
:10366000a00188000020200000d0fe000200fa0027
:1036700051618000010f7800b08080000000e00000
:1036800004003200b28080009e007800100020000c
:10369000020001000d48a9000080fa003400f90082
:1036a0003200f9004f03be004f02be004f01be00c2
:1036b00000060000000200001f0000004f00be00d6
:1036c0003600f900004006003600f800809fbe007a
:1036d000829fbe00849fbe00869fbe003200f8001d
:1036e0003400f80010002000a00188000020200015
:1036f00000d0fe000200fa0061618000010f780036
:10370000b08080000000e00004003200b280800041
:103710009e00780020002000020001000d68a90032
:103720000080fa003400f9003200f9004f03be00b7
:103730004f02be004f01be004f00be003600f90030
:10374000004006003600f800809fbe00829fbe0049
:10375000849fbe00869fbe000000fa00c068a900da
:1037600020002000880e07000080fa004f03be00f2
:103770004f02be004f01be004f00be003600f900f0
:10378000004006003600f800809fbe00829fbe0009
:10379000849fbe00869fbe000000fa00c608a900f4
:1037a00070002000780e07000080fa004f03be0072
:1037b0004f02be004f01be004f00be003600f900b0
:1037c000004006003600f800809fbe00829fbe00c9
:1037d000849fbe00869fbe000000fa002046800045
:1037e000700060000000e00003003200c488a900ff
:1037f000a0002000640e0700214680000002200087
:10380000008060000000e00003003200c4a8a900ae
:10381000900020005c0e0700214680000010200070
:10382000008060000000e00003003200c508a9002d
:10383000c0002000540e0700204680006100600098
:103840000000e00003003200c408a900b00020001e
:103850004d0e0700ffff37003600f800809fbe00c6
:10386000829fbe00849fbe00869fbe000000fa00bb
:10387000c028a9000000eb00430e07000080fa00fa
:103880004f03be004f02be004f01be004f00be00fe
:103890003600f900004006003600f800809fbe00a8
:1038a000829fbe00849fbe00869fbe000000fa007b
:1038b000c088a90030002000330e07000080fa0005
:1038c0004f03be004f02be004f01be004f00be00be
:1038d0003600f900004006003600f800809fbe0068
:1038e000829fbe00849fbe00869fbe000000fa003b
:1038f0002c0e0700c048a90010002000220e07006f
:103900000080fa004f03be004f02be004f01be0010
:103910004f00be003600f900004006003600f800f7
:10392000809fbe00829fbe00849fbe00869fbe0017
:103930000000fa00908080000000e00002003200e9
:10394000908080000000010005a8a9000080fa0016
:103950004f03be004f02be004f01be004f00be002d
:103960003600f900004006003600f800809fbe00d7
:10397000829fbe00849fbe00869fbe000000fa00aa
:1039800000808000000001001048a9000080fa00bb
:103990004f03be004f02be004f01be004f00be00ed
:1039a0003600f900004006003600f800809fbe0097
:1039b000829fbe00849fbe00869fbe000000fa006a
:1039c00010808000000001001068a9000080fa004b
:1039d0004f03be004f02be004f01be004f00be00ad
:1039e0003600f900004006003600f800809fbe0057
:1039f000829fbe00849fbe00869fbe000000fa002a
:103a000020808000000001001148a9000080fa0019
:103a10004f03be004f02be004f01be004f00be006c
:103a20003600f900004006003600f800809fbe0016
:103a3000829fbe00849fbe00869fbe000000fa00e9
:103a400030808000000001001168a9000080fa00a9
:103a50004f03be004f02be004f01be004f00be002c
:103a60003600f900004006003600f800809fbe00d6
:103a7000829fbe00849fbe00869fbe000000fa00a9
:103a800040808000000001001188a9000080fa0039
:103a90004f03be004f02be004f01be004f00be00ec
:103aa0003600f900004006003600f800809fbe0096
:103ab000829fbe00849fbe00869fbe000000fa0069
:103ac00050808000000001001028a9000080fa004a
:103ad0004f03be004f02be004f01be004f00be00ac
:103ae0003600f900004006000040da000000fe0049
:103af000000005006022b800060220000000d0008f
:103b00008180d2000482d2008582d2000000a00011
:103b10000202520083825a00030031000202420076
:103b200083824a000000a1000603e900f3ff3a0087
:103b3000000006008001780002003700b1597800cb
:103b40000201e9000200e000fcff3a00000006006c
:103b5000ba0e00005a0f0000d60e00000000000050
:103b6000660a0000900a0000ba0a0000de0a00009f
:103b700000000000020d00001e0e0000400b0000bf
:103b80002e0c00005c090000640900006c090000b4
:103b9000740900007c09000084090000b4090000d9
:103ba0000e0a00002c0a0000340a00003c0a000043
:103bb000440a0000860e00009e0e00004a880000a5
:103bc000521400008e140000ae140000b614000061
:103bd000ce140000d6140000ee140000f61400000d
:103be000fe140000461500007e150000761300004c
:103bf0008e130000a6130000be130000f015000095
:103c0000b6150000d6130000181400002a16000094
:103c10006a160000821600009a160000b216000014
:103c20000000000000000000ca160000ea160000b4
:103c3000001700001e17000034170000481700008e
:103c4000681700008a1700009217000000000000ab
:103c5000000000009a170000c0170000d8170000ed
:103c60004a180000601800007c180000de180000f0
:103c7000f01700000000000000000000000000003d
:103c80000000000000000000000000004e190000cd
:103c9000641900007c19000084190000e619000076
:103ca000d61a0000661a0000c01900006c1b000044
:103cb000561b0000821b0000981b00000f00000034
:103cc00021000000561f0000861f0000b01f0000ea
:103cd000b81f0000c01f0000cc1f00000000000043
:103ce00000000000d81f0000e01f0000f81f0000c7
:103cf00090210000c0210000ea210000f221000014
:103d0000fa21000006220000000000000000000070
:103d1000122200001a2200003222000014200000ab
:103d2000442000006e200000762000007e2000006d
:103d30008a20000000000000000000009620000023
:103d40009e200000b6200000d220000002210000ca
:103d50002c210000342100003c21000048210000fb
:103d60000000000000000000542100005c21000061
:103d7000742100000000fa0001eba8000080fa00a6
:103d8000000006000000fa0001eba9000080fa0024
:103d9000000006000000fa0008cba8000080fa002e
:103da000000006000000fa0008cba9000080fa001d
:103db000000006000200fa00000f78000080fa0000
:103dc000000006000400fa00100798000000eb0055
:103dd000000f78001e009000e10f50000800320034
:103de000e10f500003003900e20f500007003200dd
:103df0000900370081608000010f7800060037005d
:103e000051618000010f780003003700616180007c
:103e1000010f7800000000001e0078000080fa000a
:103e2000000006000400fa00100798000040eb00b4
:103e3000004f78001e009000e10f50000f0032008c
:103e4000e10f500003003900e20f5000150032006e
:103e50001e0037008059800022800a000000000008
:103e60000080fb0000f0a7000000ea000000ea006c
:103e70004f00de00004f78001400370080598000aa
:103e8000ff800a00000000000080fb0000f0a70097
:103e90000000ea000000ea004f00de00004f78005a
:103ea0000a0037009059800000800a0000000000de
:103eb0000080fb0000f0a7000000ea00000a0000fc
:103ec000000200001f0000000000ea004f00de00ba
:103ed000004f7800000000001e4078000080fa00cb
:103ee000000006000200fa00000f78001e007800b3
:103ef00000407800634060000080fb0063006000c9
:103f00004500dd0012588000f1f92f0081006100aa
:103f100001007000105888000080fa0000000600c0
:103f20000000fa002b48a8000080fa0000000600fc
:103f30000000fa002b48a9000080fa0000000600eb
:103f40000000fa000b48a9000080fa0000000600fb
:103f50000200fa00000f78001e0078000040780090
:103f60006740600067406000674060000080fb00c1
:103f7000670060004800dd0062438000f18f2f0081
:103f80008100610001007000604388000080fa0039
:103f9000000006000200fa00000f78001e00780002
:103fa000e10f500008003200e10f5000030039001b
:103fb000e20f500007003200090037002ba8a800cc
:103fc000204ba800060037002d48a80021eba800d0
:103fd000030037002d68a800220ba8000000000095
:103fe0000080fa00000006000200fa00000f7800ce
:103ff0001e007800e10f500008003200e10f500071
:1040000003003900e20f50000700320009003700ba
:104010002ba8a900204ba900060037002d48a900b5
:1040200021eba900030037002d68a900220ba9008d
:10403000000000000080fa00000006000200fa0004
:10404000000f78001e007800e10f500007003200da
:10405000e10f500003003900e20f5000050032006c
:10406000060037000ba8a900040037000d48a9007e
:10407000020037000d68a900000000000080fa006f
:10408000000006000400fa00000f780011079800f5
:104090001e007800e10f500011003200e10f5000c7
:1040a00003003900e20f50001900320024003700ed
:1040b0001e00900000407800674060000080fb0018
:1040c000670060004400dd0072438000f1f82f00bb
:1040d0008100610001007000704388001800370003
:1040e0001e00900000407800674060000080fb00e8
:1040f000670060004800dd00a2438000f18f2f00c0
:104100008100610001007000a04388000c003700ae
:104110001e00900000407800674060000080fb00b7
:10412000670060004c00dd00a2438000f1ff280022
:104130008100610001007000a043880000000000c1
:104140000080fa00000006000000fa00002bef00db
:104150000006200010588800042bef00062bef000b
:10416000082bef000a2bef000c2bef000e2bef00bb
:10417000102bef00122bef00142bef004000280053
:10418000005988001000200010598800302bef00e3
:10419000322bef00382bef00402bef00482bef00c5
:1041a000502bef003a2bef00422bef004a2bef0091
:1041b000522bef003c2bef00442bef004c2bef0079
:1041c000542bef003e2bef00462bef004e2bef0061
:1041d000562bef00682bef006c2bef00702bef00dd
:1041e000742bef0000402000505b8800004020004e
:1041f000705b880000402000905b88000040200039
:10420000b05b8800a02bef00a42bef00a82bef00e1
:10421000ac2bef00d02bef00d22bef00d42bef0014
:10422000d82bef0000302000b05e88000030200066
:10423000d05e8800f02bef00f22bef00f82bef00a0
:10424000fa2bef00022cef000c2cef000e2cef00ed
:10425000102cef00122cef00142cef00162cef00a6
:10426000182cef001a2cef001c2cef001e2cef0076
:10427000202cef00222cef00242cef00262cef0046
:10428000282cef002a2cef002c2cef002e2cef0016
:10429000302cef00322cef00342cef0080e92000ae
:1042a0004c010700c0ec200064010700c0f62000ac
:1042b000b20107000ba8a9002ba8a8000d48a9006f
:1042c0002d48a8000d68a9002d68a8001160800085
:1042d00000f02000010070001060880001eba800d1
:1042e0007a000700802bef0010002000105c88008f
:1042f000842bef00862bef00882bef008a2bef003a
:104300008c2bef0000102000705c88001000200053
:10431000805c8800922bef00942bef000080fa0065
:10432000000006000200fa0001eba9008160800095
:10433000010f78000ba8a9002ba8a90051618000eb
:10434000010f78000d48a9002d48a9006161800087
:10435000010f78000d68a9002d68a900002bef005f
:104360000006200010588800042bef00062bef00f9
:10437000082bef000a2bef000c2bef000e2bef00a9
:10438000102bef00122bef00142bef00202bef006f
:10439000222bef00302bef00322bef00382bef00f9
:1043a000402bef00482bef00502bef003a2bef0093
:1043b000422bef004a2bef00522bef003c2bef007b
:1043c000442bef004c2bef00542bef003e2bef0063
:1043d000462bef004e2bef00562bef00682bef0023
:1043e0006c2bef00702bef00742bef006a2bef00ab
:1043f0006e2bef00722bef00762bef00802bef007f
:10440000822bef00842bef00862bef00882bef0030
:104410008a2bef008c2bef008e2bef00902bef0000
:10442000922bef00942bef00a02bef00a42bef00ba
:10443000a82bef00ac2bef00d02bef00d22bef001e
:10444000d42bef00d82bef0000302000b05e8800a6
:1044500000302000d05e8800f02bef00f22bef0040
:10446000f82bef00fa2bef00002cef00022cef00ee
:104470000c2cef000e2cef00102cef00122cef0094
:10448000142cef00162cef00182cef001a2cef0064
:104490001c2cef001e2cef00202cef00222cef0034
:1044a000242cef00262cef00282cef002a2cef0004
:1044b0002c2cef002e2cef00302cef00322cef00d4
:1044c000342cef000080fa00000006000000fa0023
:1044d00000eca8000000000001608000000028003f
:1044e000008060000000e000fbff32000aeba80043
:1044f0000080fa00000006000600fa00100798008d
:10450000210798000000eb00000f78001e009000cb
:104510008000eb009200200003002000820f50007a
:10452000838f58005f003e0000060100090037003d
:104530000e00370013003700180037001d00370049
:104540002200370027003700320037003d003700d7
:10455000480037002e009000e20f500053003a0050
:1045600090012000000f7800630037002e009000bb
:10457000e20f50004f003a0080012000000f780049
:104580005d0037002e009000e10f50004b003a0014
:10459000f0002000000f7800570037002e00900038
:1045a000e10f500047003a00e0002000000f7800c3
:1045b000510037002e009000e10f500043003a00f8
:1045c000d0002000000f78004b0037002e00900034
:1045d000e10f50003f003a00c0002000000f7800bb
:1045e000450037002e009000e10f500003003a0014
:1045f000a0002000000f78003f0037002e00900040
:10460000e20f500035003a00b0002000000f7800a3
:10461000390037002e009000e10f500003003a00ef
:1046200080002000000f7800330037002e0090003b
:10463000e20f50002b003a0090002000000f78009d
:104640002d0037002e009000e10f500003003a00cb
:1046500060002000000f7800270037002e00900037
:10466000e20f500021003a0070002000000f780097
:10467000210037002e009000e10f500003003a00a7
:1046800040002000000f78001b0037002e00900033
:10469000e20f500017003a0050002000000f780091
:1046a0001500370000000000130037000000000074
:1046b00011003700000000000f003700000000006c
:1046c0000d00370000000000000e00000002000096
:1046d0001f0000000b003700000000000900370039
:1046e0000000000007003700000000000500370050
:1046f0000000000003003700000000000100370048
:10470000000000001e0078000080fa000000060093
:104710000800fa0010079800210798003207980057
:10472000be0090002e00900076ff0700000f78007a
:104730001e009000e10f500010003200e10f500009
:1047400003003900e20f5000180032002200370049
:104750001e007800004078007f4060000080fb0071
:104760007f006000125c800001fe2f00810061006c
:1047700001007000105c8800170037001e007800f0
:10478000004078007f4060000080fb007f006000f8
:104790004800dd00725c8000f10f2e008100610096
:1047a00001007000705c88000b0037001e0078006c
:1047b000004078007f4060000080fb007f006000c8
:1047c000825c800001fe2f0081006100010070000a
:1047d000805c8800000000000080fa0000000600f5
:1047e0000200fa00000f78001e0078000000e000d0
:1047f000020032009e007800a18088000080fa004c
:10480000000006000000fa000080fa000000060028
:104810000000fa005140800000402000008060004d
:104820000000e00006003200a08080000000e000f0
:1048300002003200a0808000000001000b48a900a7
:104840000080fa00000006000200fa00000f780065
:104850001e0078000000e000020032009e00780098
:10486000b18088000080fa00000006000400fa0011
:10487000000f7800110798000080fa000000060081
:104880000400fa00100798001e009000e10f50008d
:1048900013003200e10f500003003900e20f500016
:1048a0001e0032003600370080598000640060002e
:1048b0000000e0002700320081608000010f7800d6
:1048c000b08080000000e00024003200b280800050
:1048d0009e0078001e0090000200010028003700b2
:1048e0008159800000002800008060000000e00086
:1048f0001c00320051618000010f7800b080800000
:104900000000e00019003200b28080009e007800b4
:104910001e0090000200010019003700905980002d
:10492000610060000000e000120032006161800060
:10493000010f7800b08080000000e0000f0032001e
:10494000b28080009e0078001e00900002000100ee
:104950000b003700000000000900370000000000d5
:1049600007003700000000000500370000000000cd
:1049700003003700000000000100370000000000c5
:104980000080fa00000006000200fa00000f780024
:104990001e0078000000e000020032009e00780057
:1049a000c18088000080fa00000006000200fa00c2
:1049b000000f78000080fa00000006009200fa0064
:1049c000e7090700e00620000e004000260107006e
:1049d0004f02b000c0fd2f000f004000e106200094
:1049e0008100470011000900311878004002b10031
:1049f0000e007800670107004f02b100e2062000b8
:104a00008e007800c002210050fc07005081800019
:104a100000119000c10221001000200002000100de
:104a20005081800020009000000001000000000084
:104a30005081800030009000000001000004a200be
:104a40000004e000faff3a0050818000400090002e
:104a50000000010000000000508180003000900044
:104a6000000001000004e000fbff3a00009020007d
:104a7000d1032000d8090700d2ff37000200fa0056
:104a8000000f78001e007800cf80de00b20020000a
:104a900003002000820f5000838f580085003e00e5
:104aa000000601000b003700140037001d0037001e
:104ab000260037002f00370038003700410037004c
:104ac0004a003700530037005c00370065003700ac
:104ad0006e003700a073800088800a00000000008c
:104ae0000080fb0000f0a7000000ea000000ea00e0
:104af0004f00de00004078006f003700a073800098
:104b000099800a00000000000080fb0000f0a70070
:104b10000000ea000000ea004f00de0000407800dc
:104b200065003700a0738000aa800a000000000022
:104b30000080fb0000f0a7000000ea000000ea008f
:104b40004f00de00004078005b003700a07380005b
:104b5000bb800a00000000000080fb0000f0a700fe
:104b60000000ea000000ea004f00de00004078008c
:104b700051003700a0738000cc800a0000000000c4
:104b80000080fb0000f0a7000000ea000000ea003f
:104b90004f00de000040780047003700a07380001f
:104ba000dd800a00000000000080fb0000f0a7008c
:104bb0000000ea000000ea004f00de00004078003c
:104bc0003d003700a0738000ee800a000000000066
:104bd0000080fb0000f0a7000000ea000000ea00ef
:104be0004f00de000040780033003700a0738000e3
:104bf000ff800a00000000000080fb0000f0a7001a
:104c00000000ea000000ea004f00de0000407800eb
:104c100029003700c072800022800a0000000000d6
:104c20000080fb0000f0a7000000ea000000ea009e
:104c30004f00de00004078001f003700c072800087
:104c400033800a00000000000080fb0000f0a70095
:104c50000000ea000000ea004f00de00004078009b
:104c600015003700c072800044800a000000000078
:104c70000080fb0000f0a7000000ea000000ea004e
:104c80004f00de00004078000b003700c07280004b
:104c900055800a00000000000080fb0000f0a70023
:104ca0000000ea000000ea004f00de00004078004b
:104cb000010037000040eb000080fa000000060011
:104cc0000200fa00000f78001e007800e30f500089
:104cd00030003200e30f500007003c00e10f5000ad
:104ce00018003200e10f500020003c000000e000fe
:104cf0000a00320059003700e50f50003900320039
:104d0000e50f50002d003500e60f50003f00320047
:104d1000e70f50004700320050003700a0738000ba
:104d200000800a00000000000080fb0000f0a700e7
:104d30000000ea000000ea004f00de0000407800ba
:104d400047003700a073800011800a0000000000b7
:104d50000080fb0000f0a7000000ea000000ea006d
:104d60004f00de00004078003d003700a073800057
:104d700022800a00000000000080fb0000f0a70075
:104d80000000ea000000ea004f00de00004078006a
:104d900033003700a073800033800a000000000059
:104da0000080fb0000f0a7000000ea000000ea001d
:104db0004f00de000040780029003700a07380001b
:104dc00044800a00000000000080fb0000f0a70003
:104dd0000000ea000000ea004f00de00004078001a
:104de0001f003700a073800055800a0000000000fb
:104df0000080fb0000f0a7000000ea000000ea00cd
:104e00004f00de000040780015003700a0738000de
:104e100066800a00000000000080fb0000f0a70090
:104e20000000ea000000ea004f00de0000407800c9
:104e30000b003700a073800077800a00000000009c
:104e40000080fb0000f0a7000000ea000000ea007c
:104e50004f00de0000407800010037000040eb000a
:104e60000080fa00000006002c00fa00881f78007d
:104e7000000478000000eb00000f78000600370007
:104e80001e007800fdfe07001e017800e8004100ca
:104e900000f778001e0fe8001e007800eb0f5000ae
:104ea000f7ff34000000eb001007980008003700ff
:104eb0001e00900082ff07009e009000f4804000da
:104ec00000f778001e0090000000e800100798002e
:104ed0001e00900000120000000200001f000000f1
:104ee000e40f5000f5ff34000000eb0020079800ad
:104ef0000b0037002e009000a20007008000780011
:104f00002e00900069004000000040006800400052
:104f1000013778002e0090000000e800200798007c
:104f20002e009000e20f5000f2ff34000000eb0072
:104f3000300798000b0037003e00900096000700f5
:104f4000800078003e0090006c00400000004000af
:104f500068004000013778003e0090000000e80043
:104f6000300798003e009000e30f5000f2ff34003d
:104f70008e00070040179800900007005017980017
:104f8000e800470011000900311c78004802b10018
:104f9000080078004f0478000080fa000000060046
:104fa0000c00fa00500798000000eb00000f78009a
:104fb0001e00780000004000de00900000804000ed
:104fc000a10a2000010878001e0fe8001e007800ea
:104fd00000004000de009000008040002100200022
:104fe000010878001e0fe8000000eb001007980091
:104ff0000f0037001e00780000004000de00900027
:105000000080400062fd2f000e0141009e009000d4
:1050100081004100914078008180fb000108780008
:105020001e0fe8001e0090000000e8001007980026
:105030001e009000eb0f5000eeff34000000eb006c
:1050400020079800100037001e0078000000400084
:10505000de00900000804000ae009000ec80400038
:1050600062fd2f000e014100810041009140780057
:105070008180fb00010878001e0fe8002e009000e0
:105080000000e800200798002e009000e40f500078
:10509000edff34000000eb003007980010003700ef
:1050a0001e00780000004000de009000808040007c
:1050b0003e009000690040000000400062fd2f00ab
:1050c0000e014100000041001000780080087800c7
:1050d0001e0fe8003e0090000000e8003007980036
:1050e0003e009000e20f5000edff34000000eb00a6
:1050f00040079800100037001e00780000004000b4
:10510000de009000808040004e0090006c00400067
:105110000000400062fd2f000e0141000000410030
:1051200010007800800878001e0fe8004e00900004
:105130000000e800400798004e009000e30f500088
:10514000edff34001e00780000004000de009000fb
:1051500000804000beb89700010878001e0fe800ec
:105160001e00780000004000de009000008040003b
:10517000ceb89700010878001e0fe8000080fa0002
:10518000000006000200fa00000f78000000eb00ab
:105190000080fa00000006000200fa00000f78000c
:1051a0000000eb000080fa00000006000000fa009a
:1051b0000000eb000080fa00000006000000fa008a
:1051c0000000eb000080fa00000006000000fa007a
:1051d000d00f800099800a00000000000080fb00d2
:1051e00000f0a7000000ea000000ea004f00de0027
:1051f000004078000080fa00000006000000fa007d
:10520000d00f800088800a00000000000080fb00b2
:1052100000f0a7000000ea000000ea004f00de00f6
:10522000004078000080fa00000006000000fa004c
:10523000d00f800011800a00000000000080fb00f9
:1052400000f0a7000000ea000000ea004f00de00c6
:10525000004078000080fa00000006000000fa001c
:10526000d00f800000800a00000000000080fb00da
:1052700000f0a7000000ea000000ea004f00de0096
:10528000004078000080fa00000006000400fa00e8
:10529000100798000040eb00004f78001e009000bf
:1052a0000000e00003003200e10f50000b0032006c
:1052b00014003700c00e800000800a0000000000cb
:1052c0000080fb0000f0a7000000ea000000ea00f8
:1052d0004f00de00004f78000a003700c00e80004b
:1052e00011800a00000000000080fb0000f0a70011
:1052f0000000ea000000ea004f00de00004f7800e6
:10530000000000001e4078000080fa000000060047
:105310000400fa00100798000040eb00004f7800ee
:105320001e0090000000e00003003200e10f50007a
:105330000900320010003700c00e800061006000dc
:1053400000f0a7000000ea000000e9004f00de00c6
:10535000004f780008003700c00e80006200600037
:1053600000f0a7000000ea000000e9004f00de00a6
:10537000004f7800000000001e4078000080fa0016
:10538000000006000000fa00d221ef00e1652100d4
:105390000000eb00e700070041662100100020003c
:1053a000e4000700c06721000201070040692100f6
:1053b0000c010700c06a210016010700406c2100a3
:1053c000200107001048a9003048a8001068a90073
:1053d0003068a8001148a9003148a8001168a90048
:1053e0003168a8001188a9003188a8001028a900f8
:1053f0003028a8000080fa00000006000000fa0033
:10540000d221ef003048a9001048a9003068a90057
:105410001068a9003148a9001148a9003168a90005
:105420001168a9003188a9001188a9003028a900b5
:105430001028a9000080fa00000006000000fa0011
:10544000d321a8000080fa00000006000000fa0046
:10545000a00e800088800a00000000000080fb0091
:1054600000f0a7000000ea000000ea004f00de00a4
:10547000004078000080fa00000006000000fa00fa
:10548000d321a9000080fa00000006000000fa0005
:10549000a00e800099800a00000000000080fb0040
:1054a00000f0a7000000ea000000ea004f00de0064
:1054b000004078000080fa00000006000000fa00ba
:1054c000d301a8000080fa00000006000000fa00e6
:1054d000d301a9000080fa00000006000200fa00d3
:1054e00030002000000f7800a10e8000000028008e
:1054f000008060000000e000030032004000200057
:10550000000f780016003700a00e8000dc800a0033
:10551000000000000080fb00e10f50000700320097
:10552000e20f5000080032000000e00009003a00dd
:105530000000eb00000f7800090037002000200079
:10554000000f78000600370010002000000f7800e0
:105550000300370030002000000f7800000000003a
:105560001e0078000080fa00000006000600fa0025
:1055700010079800210798000000eb00000f78004a
:105580000e0037001dff07000004a2000004e00029
:105590000e003200f10f80001e009000010878001c
:1055a0001e0090000080e800100798002e00900078
:1055b0000000e900200798001e0fe8002e00900070
:1055c0000000e000efff3a0001003700000000009b
:1055d0001e0078000080fa00000006000600fa00b5
:1055e00010079800210798000000eb00000f7800da
:1055f0000e0037000dff07000004a2000004e000c9
:105600000e0032001e00900010007800e00f8800ad
:105610001e0090000080e800100798002e00900007
:105620000000e900200798001e0fe8002e009000ff
:105630000000e000efff3a0001003700000000002a
:105640001e0078000080fa00000006000600fa0044
:1056500010079800210798000040eb00004f7800e9
:105660001e009000e10f500011003a0010002000d1
:1056700027ff07000004e0000a0032002e0090001f
:1056800010007800f00e88002e0090000080e800e6
:1056900010007800000f880010c0b300004f7800a1
:1056a000040037000040eb00004f78000100370095
:1056b000000000001e4078000080fa000000060094
:1056c0000600fa0010079800210798000040eb0040
:1056d000004f78001e0090000000e00011003a002a
:1056e00000160000000200001f0000000000eb0098
:1056f000e9fe07000004e0000a003200d10e80003d
:105700002e009000010878002e0090000080e80034
:10571000e10e80000108780010c0b300004f78004f
:10572000040037000040eb00004f78000100370014
:10573000000000001e4078000080fa000000060013
:105740000400fa00000f7800110798001e0078008e
:105750000000e00003003200e10f500007003200bb
:105760000f0037001e0090000000e000090032002a
:105770009e00900001808800090037001e00900004
:105780000000e000050032009e00900011808800bb
:105790000300370000000000010037000000000097
:1057a0000080fa00000006000000fa000080fa0005
:1057b000000006000000fa000080fa000000060069
:1057c0000200fa00000f78001e0078000000e000e0
:1057d000020032009e007800218088000080fa00dc
:1057e000000006000000fa000080fa000000060039
:1057f0000200fa00000f78001e0078000000e000b0
:10580000020032009e007800318088000080fa009b
:10581000000006000000fa000080fa000000060008
:105820000200fa00000f78001e0078000000e0007f
:10583000020032009e007800418088000080fa005b
